S01D000046696E616C5F70726F6A6563745F74656D706C6174652E6D6F7469
S21400000000400020B50400001D0500001D0500008E
S2140000101D0500001D0500001D0500000000000075
S2140000200000000000000000000000001D050000A9
S2140000301D050000000000001D05000059C5000059
S214000040BD680000C7680000D1680000DB680000DB
S214000050E5680000EF680000F9680000036900002A
S2140000600D69000017690000216900002B69000077
S214000070356900003F6900004969000053690000C7
S2140000805D6900001D0500001D0500001D0500003F
S2140000901D0500001D0500001D0500001D050000D3
S2140000A01D0500001D0500001D0500001D050000C3
S2140000B01D0500001D0500001D0500001D050000B3
S2140000C01D0500001D0500001D0500001D050000A3
S2140000D01D0500001D0500001D050000E5C200000E
S2140000E0EFC200001D0500001D0500001D050000F4
S2140000F01D0500001D0500001D0500001D05000073
S21400010033C300001D0500001D0500001D0500008E
S2140001101D0500001D0500001D0500001D05000052
S2140001201D0500001D0500001D0500001D05000042
S2140001301D0500001D0500001D0500001D05000032
S2140001401D0500001D0500001D0500001D05000022
S2140001501D0500001D0500001D0500001D05000012
S2140001601D0500001D0500001D0500001D05000002
S2140001701D0500001D050000018D00000B8D000010
S214000180158D00001F8D0000298D00001D05000044
S2140001901D050000338D00003D8D00001D0500008C
S2140001A0478D00001D0500001D0500001D05000010
S2140001B05B8D0000658D00001D0500006F8D000042
S2140001C01D0500001D0500001D050000499D0000DE
S2140001D0559D0000619D00006D9D00001D9500006E
S2140001E01D050000799D0000859D0000919D000082
S2140001F09D9D00005D9500001D050000A99D000066
S214000200B59D0000C19D0000CD9D00009D9500009D
S2140002101D050000D99D0000E59D0000F19D000031
S214000220FD9D0000DD9500001D0500001D05000079
S2140002301D0500001D0500001D0500001D05000031
S2140002401D0500001D0500001D0500001D05000021
S2140002501D0500001D0500001D0500001D05000011
S2140002601D0500001D0500001D0500001D05000001
S2140002701D0500001D0500001D0500001D050000F1
S2140002801D0500001D0500001D0500001D050000E1
S2140002901D0500001D0500001D0500001D050000D1
S2140002A01D0500001D0500001D0500001D050000C1
S2140002B01D0500001D0500001D0500001D050000B1
S2140002C01D0500001D0500001D0500001D050000A1
S2140002D01D0500001D0500001D0500001D05000091
S2140002E01D0500001D0500001D0500001D05000081
S2140002F01D0500001D0500001D0500001D05000071
S2140003001D0500001D0500001D0500001D05000060
S2140003101D0500001D0500001D0500001D05000050
S2140003201D0500001D0500001D0500001D05000040
S2140003301D0500001D0500001D0500001D05000030
S2140003401D0500001D0500001D0500001D05000020
S2140003501D0500001D0500001D0500001D05000010
S2140003601D0500001D0500001D0500001D05000000
S2140003701D0500001D0500001D0500001D050000F0
S2140003801D0500001D0500001D0500001D050000E0
S2140003901D0500001D0500001D0500001D050000D0
S2140003A01D0500001D0500001D0500001D050000C0
S2140003B01D0500001D0500001D0500001D050000B0
S2140003C01D0500001D0500001D0500001D050000A0
S2140003D01D0500001D0500001D0500001D05000090
S2140003E01D0500001D0500001D0500001D05000080
S2140003F01D0500001D0500001D050000FFFFFFFF96
S214000400FFFFFFFFFFFFFFFFFFFFFFFFFE7FFFFF78
S214000410044B05481B1A062B02D9044B03B1184798
S214000420704700BF3FA1FF1F3CA1FF1F0000000058
S21400043005490648091A891001EBD171491002D006
S214000440034B03B1184770473CA1FF1F3CA1FF1F99
S2140004500000000010B5064C237843B9FFF7D8FF1C
S214000460044B13B10448AFF300800123237010BD82
S2140004700000002000000000AC0D010008B5084B8D
S2140004801BB108490848AFF300800848036813B951
S214000490BDE80840CCE7064B002BF9D09847F7E7B5
S2140004A00000000004000020AC0D010038A1FF1F72
S2140004B00000000072B64FF000014FF000024FF04F
S2140004C000034FF000044FF000054FF000064FF019
S2140004D00007B846B946BA46BB46BC460A490B4A68
S2140004E0521A013A05DD0020042308601944043A34
S2140004F0FBDA07488546074880470748804762B6C4
S2140005000BF03CFFFEE700000090FF1F00400020BD
S21400051000400020B1D40000D9D30000FFF7FEBF92
S214000520054A537AB3FA83F35B094370937AB3FAB6
S21400053083F35B09837070471C00002003680B6020
S21400054043681360704703680B6043681360704726
S21400055010B582B05D4B997AB1FA81F25209DA721F
S2140005605B7A002B40F09680584B1A7301225A7221
S2140005704B1CDBB2632B40F298800022534B9A72DE
S214000580002900F09580524B1A78524B93F8253389
S214000590012A14BF00210121994206D0032A04D063
S2140005A0002000214C4AC2E90001494A13704A4C17
S2140005B000224A4BD4E900010CF0EAFFC4E900012E
S2140005C0444C0DF04BFC204490F8573284F8BC3273
S2140005D0012204F52F7110460BF0EEF8404A102168
S2140005E0002007F089F93F4A1121002007F084F91E
S2140005F03D4A0C21002007F07FF93C4A0D210020DF
S21400060007F07AF93A4A0221002007F075F9394ACC
S2140006100321002007F070F9374A0E21002007F06A
S2140006206BF9364A0F21002007F066F9344A042198
S214000630002007F061F9334A0521002007F05CF935
S214000640314A0621002007F057F9304A07210020DA
S21400065007F052F92E4A0821002007F04DF92D4ADE
S2140006600921002007F048F92B4A0A21002007F04C
S21400067043F92A4A0B21002007F03EF90123019393
S214000680002100914FF480430A46032009F042FC03
S21400069002B010BD0133DBB2132B03D900220B4B83
S2140006A05A7265E7094A537262E7084A937267E727
S2140006B00848094991F8133180F825335A22B33196
S2140006C000F516700FF052FE5DE700BF1C0000201C
S2140006D01C0C0020D0070020600500200000F03F22
S2140006E02C0400206C0C0020B002002048030020E0
S2140006F03807002064020020200C0020180200208A
S214000700B80C002084070020FC020020E003002034
S2140007107804002094030020C40400201005002064
S2140007202DE9F04F2DED048B8BB0064B93F814316A
S21400073073B9054B5A68034BD3F8A430D31A08EEA6
S214000740103A07E0600500201C00002000000000B2
S2140007501FED028AE04DE14B5B68C5F8A43000232C
S21400076085F81431DE480CF03FF8DE4CC0F38030DC
S21400077084F82603D4F84C322366D4F850326366E5
S214000780D4F84432A366D4F84832E366D4F83C3250
S2140007902367D4F840326367D4F83432A367D4F8BA
S2140007A03832E367D4F82C32C4F88030D4F83032CC
S2140007B0C4F88430D4F82432C4F88830D4F8283208
S2140007C0C4F88C30D4F81C32C4F89030D4F82032F8
S2140007D0C4F89430D4F81432C4F89830D4F81832E8
S2140007E0C4F89C30D4F80C32C4F8A030D4F81032D8
S2140007F0C4F8A430D4F80432C4F8A830D4F80832C8
S214000800C4F8AC30D4F8FC31C4F8B030D4F80032B8
S214000810C4F8B430D4F8F431C4F8B830D4F8F831A9
S214000820C4F8BC302B69C4F8C0306B69C4F8C43057
S214000830AB69C4F8C830EB69C4F8CC306022A118A4
S21400084004F1D0000FF092FD04F59A7204F5987149
S21400085004F1C00003F00EFB95F81231002B40F0B7
S214000860FA81012285F8122185F811219D4B93F813
S2140008703533002B00F045824FF480719A480BF018
S214000880ADFF984B93F83433002B00F0A4824FF45E
S214000890007195480BF0A2FF924B93F83333002B70
S2140008A000F09F824FF480618F480BF097FF002482
S2140008B08DF81C40ADF81E4007AA2146204603F0DE
S2140008C0E6F8204603F09CF90DF11A022146204670
S2140008D003F0ACF9BDF81A30824A536092F833231D
S2140008E072B107EE903AF8EE677A9FED807A77EE6F
S2140008F0C77AB6EE087A67EE877A7A4BC3ED4E7AF9
S214000900784B93F835331BB3764BD3ED4D6A724A6A
S214000910D3ED4C7A92ED047A37EEC77AF3EE047A8A
S21400092077EEC77A9FED727A67EE877A92ED077A4E
S21400093036EEC77A9FED6F6A27EE067A77EE877AED
S2140009409FED6D7A66EE876A77EEA67AC3ED4E7AED
S214000950634D28460BF048FF624CC0F3801084F8C5
S214000960270328460BF040FFC0F3C01084F8280386
S21400097028460BF039FFC0F3002084F829032846E8
S2140009800BF032FFC0F3402084F82A0328460BF011
S2140009902BFFC0F3802084F82B0328460BF024FF9F
S2140009A0C0F3C02084F82C0328460BF01DFFC0F3CC
S2140009B0003084F82D0328460BF016FFC0F34030B5
S2140009C084F82E0394F83433002B40D094F82C137C
S2140009D094F82D339B0103EB411394F827130B4433
S2140009E094F82B1303EB011394F82A1303EBC103BB
S2140009F094F8291303EB810394F8281303EB4103BF
S214000A0003EBC01307EE903AFAEECF7A324B93ED33
S214000A10077A37EEC77A93ED0E6ADFED386A67EE2F
S214000A20266A76EE866ADFED345A67EEA57A76EEAB
S214000A30A77AC4ED4E7ADFED327A67EE277A9FED1D
S214000A40317A67EE877A77EE867AC3ED0E7A2E4A8B
S214000A50D2F88030234CC3F3800384F82F33D2F8C7
S214000A608030C3F3400384F831331368C3F3402364
S214000A7084F830335368A4F85632116821F40071B4
S214000A8011601268144DB5F8B0209B1A1BB207EE21
S214000A90903AF8EEE77A9FED1D7A67EE877A95ED45
S214000AA0087A77EE877AC5ED087A9FED197A67EEB1
S214000AB0877A9FED187A67EE877AC4ED4F7A0848F2
S214000AC00BF092FEC0F3C03084F8320395F80D3177
S214000AD0002B00F08C811FE0600500201C00002029
S214000AE000F10F40D0070020C0F00F400000004487
S214000AF000803BC5002099450000C84200409C4548
S214000B00000048420AD7233C00A00340EC51B83D01
S214000B1035FA8E3CCDCC4CBEAA6AC4F8E021CA4B4E
S214000B2093F80E31002B00F07581C74BDA6AC74B7D
S214000B30C3F8E421C64801220592C64B04930392EB
S214000B40029300F108030193031D00930346021F5E
S214000B50A0F1AC0108380BF027FCBB4B93F80F3123
S214000B6083B9B94BF8EE487A9FEDBB7A67EE877A81
S214000B7093ED277A67EE877A93ED0C7A77EE877A8D
S214000B80C3ED0C7AB04B93F8103183B9AE4BF8EE48
S214000B90487A9FEDB18A67EE887A93ED287A67EEF9
S214000BA0877A93ED0D7A77EE877AC3ED0D7AA64BAA
S214000BB0002183F80D11A54AD2ED787AC3ED0A7AA2
S214000BC09FEDA67A27EE877AD2ED4E7A77EEC77A31
S214000BD09FEDA37A67EE877AC3ED257A83F80E1128
S214000BE0D2F8E401D862D2F8F001C3F8980083F88E
S214000BF00F11D2F8E801C3F89C0083F81011D2F860
S214000C00EC11C3F8A010586AC2F840010CF01EFEA2
S214000C109FED8B1B41EC100B0DF036FC57EC106B68
S214000C20904BD3E9022310EE100A39460DF0D8F89F
S214000C30002840F01B818B4D0124D5E91223304655
S214000C4039460DF0CDF8002840F0118101344035CA
S214000C501F2CF2D10CE17C4B93F81131012B0CD0F8
S214000C60022B54D0794B93F82633002B40F08B8020
S214000C700122754B83F81121F8E5744B93F826335F
S214000C80B3B3724A92ED4C6A6F4BD3ED046A76EEBC
S214000C90665A92ED4D7AD3ED077AB4EEE77AF1EE26
S214000CA010FA0AD5B3EE045AF4EEC55AF1EE10FA6D
S214000CB003D8022283F81121D8E5B4EEE77AF1EEE4
S214000CC010FA10DCB3EE045AF4EEC55AF1EE10FA40
S214000CD009DCB4EE677AF1EE10FA09D1B4EE666A72
S214000CE0F1EE10FA04D10322574B83F81121BDE52B
S214000CF0564B012283F83323002283F8342383F8EB
S214000D0035234FF4807158480BF06AFDB9E54F4B18
S214000D1093F8263323B901224B4B83F81121A5E51E
S214000D204A4B93ED4D7A484BD3ED077AB4EEE77A0B
S214000D30F1EE10FA18DC454B93ED4C6A424BD3EDBE
S214000D40046A36EE665AF3EE045AB4EEE55AF1EE4D
S214000D5010FA09DCB4EE677AF1EE10FA09D1B4EEB7
S214000D60666AF1EE10FA04D10322374B83F811219C
S214000D707CE5364B002283F8332383F834230122A4
S214000D8083F8352378E5314B93ED4D7A2E4BD3ED32
S214000D90077AB4EEE77AF1EE10FA12D52B4BD3EDC4
S214000DA04C7A294B93ED047A77EEC77AB3EE047A41
S214000DB0F4EEC77AF1EE10FA03D8022283F8112176
S214000DC054E5224B002283F83323012183F83413A1
S214000DD083F8352395E74FF4007123480BF000FDA8
S214000DE05AE54FF4806120480BF0FAFC5FE5F8EE18
S214000DF0487A9FED197A67EE877A134B93ED257A3A
S214000E0067EE877A93ED0A7A77EE877A0F4BC3ED13
S214000E10787A84E6F8EE487A9FED0F7A67EE877A5E
S214000E20094B93ED267A67EE877A93ED0B7A77EE89
S214000E30877A064BC3ED797A7CE600BFAFF3008075
S214000E400E684C35DA4DA14060050020D007002022
S214000E50B8090020DC0401000AD7233C0000C84281
S214000E606F12033A5095FF1FC0F00F400024013C5C
S214000E70DFF82C83A50108EB0503D3E902233046EF
S214000E8039460CF083FB06460F4618F80530012B52
S214000E9035D0022B66D0C04AC04BD2ED0C8AD3EDBB
S214000EA0517A78EEE78A92ED0D8AD3ED527A38EED3
S214000EB0678AD3F840010CF0C9FC9FEDB31B41ECE8
S214000EC0100B0DF0E1FA57EC106BB54BD3E902238B
S214000ED010EE100A39460CF083FF002840F081809F
S214000EE0AF4D0124D5E91223304639460CF078FF81
S214000EF0002877D1013440351F2CF3D173E0A84B7E
S214000F0003EB8414D4E90689D4E904230CF020FE0C
S214000F1006460F46A14D42464B46D4E90A010CF060
S214000F2035FB32463B460CF0E9FC42464B460CF09D
S214000F302FFB0CF0BBFFC5F84401D4E908894246F4
S214000F404B46D4E90C010CF021FB32463B460CF034
S214000F50D5FC42464B460CF01BFB0CF0A7FFC5F831
S214000F60480198E78E4B03EB8414D4E9048994F97E
S214000F7038000CF059FC32463B460CF0BFFC4246AB
S214000F804B460CF0E5FDD4E90A230CF001FB41ECDE
S214000F90180B41EC100B0DF067F9804D53EC102B3D
S214000FA0404649460CF0AAFCD4E906230CF0F0FAB9
S214000FB00CF07CFFC5F84401B0EE480AF0EE680A73
S214000FC00DF01AFA53EC102B404649460CF096FCEE
S214000FD0D4E908230CF0DCFA0CF068FFC5F84801E9
S214000FE059E70024013CA3016D4AD35C012B35D0A0
S214000FF0022B79D0694BD3ED537A68EEA77A93ED3E
S214001000547A28EE077A77EE877AC3ED557AD3F8C6
S21400101040010CF01BFC9FED5C1B41EC100B0DF02F
S21400102033FA57EC106B5E4BD3E9022310EE100A2E
S21400103039460CF0D5FE002840F0B480584D012407
S214001040D5E91223304639460CF0CAFE002840F097
S214001050AA80013440351F2CF2D1A5E0504B03EB9B
S2140010608414D4E90623D4E90A010CF08FFA064664
S2140010700F46D4E90823D4E90C010CF087FA804621
S214001080894632463B46304639460CF037FC044625
S2140010900D4642464B46404649460CF02FFC02465B
S2140010A00B46204629460CF073FA41EC100B0DF067
S2140010B04FFA5BEC10AB394C10EE102A5B464046FC
S2140010C049460CF045FD0CF0F1FEC4F84C015246C2
S2140010D05B46304639460CF03BFD0CF0E7FE80F0F0
S2140010E00040C4F8500185E72D4D05EB8415D5E981
S2140010F00223304639460CF049FA06460F4695F963
S21400110038000CF091FB002200230CF087FE28B379
S214001110D5E90423304639460CF01AFDD5E90A23F2
S2140011200CF036FA41EC190BB0EE490AF0EE690AFB
S2140011300DF09AF8194C51EC100B0CF0B7FEC4F8F1
S2140011404C01B0EE490AF0EE690A0DF055F951EC83
S214001150100B0CF0ABFEC4F850014BE7304607F11D
S21400116000410F4B03EB8414D4E904230CF0F0FC8D
S214001170D4E90A230CF00CFA05A3D3E900230CF0FB
S21400118007FA41EC190BCFE70E684C35DA4DA14053
S214001190112D4454FB21094060050020D007002093
S2140011A05095FF1F0024013CA301BD4AD35C012BD0
S2140011B029D0022B6DD0BB4BD3F840010CF046FB78
S2140011C09FEDB31B41EC100B0DF05EF957EC106B66
S2140011D0B34BD3E9022310EE100A39460CF000FE9A
S2140011E0002840F0A680AE4D0124D5E912233046F3
S2140011F039460CF0F5FD002840F09C80013440355F
S2140012001F2CF2D197E0A64B03EB8414D4E90623F7
S214001210D4E90A010CF0BAF906460F46D4E90823C9
S214001220D4E90C010CF0B2F98046894632463B46BA
S214001230304639460CF062FB04460D4642464B46A5
S214001240404649460CF05AFB02460B4620462946C5
S2140012500CF09EF941EC100B0DF07AF95BEC10AB3C
S214001260904C10EE102A5B46404649460CF070FC47
S2140012700CF01CFEC4F8580152465B463046394610
S2140012800CF066FC0CF012FE80F00040C4F85C0126
S21400129091E7834D05EB8415D5E9022330463946A0
S2140012A00CF074F906460F4695F938000CF0BCFAB7
S2140012B0002200230CF0B2FD28B3D5E90423304603
S2140012C039460CF045FCD5E90A230CF061F941ECEF
S2140012D0190BB0EE490AF0EE690A0CF0C5FF714C26
S2140012E051EC100B0CF0E2FDC4F85801B0EE490AC0
S2140012F0F0EE690A0DF080F851EC100B0CF0D6FDFC
S214001300C4F85C0157E7304607F10041644B03EB35
S2140013108414D4E904230CF01BFCD4E90A230CF053
S21400132037F95DA3D3E900230CF032F941EC190B31
S214001330CFE70024013CDFF86881A50108EB050330
S214001340D3E90223304639460CF020F906460F460C
S21400135018F80530012B28D0022B59D0514B186EA7
S2140013600CF074FA9FED4A1B41EC100B0DF08CF854
S21400137057EC106B4A4BD3E9022310EE100A39469D
S2140013800CF02EFD002840F08F80454D0124D5E955
S2140013901223304639460CF023FD002840F08580A5
S2140013A0013440351F2CF2D180E03D4B03EB841412
S2140013B0D4E90689D4E904230CF0CAFB06460F4696
S2140013C0384D42464B46D4E90A010CF0DFF8324667
S2140013D03B460CF093FA42464B460CF0D9F80CF01C
S2140013E065FDC5F86001D4E9088942464B46D4E954
S2140013F00C010CF0CBF832463B460CF07FFA424626
S2140014004B460CF0C5F80CF051FDC5F86401A5E795
S214001410234B03EB8414D4E9048994F938000CF0C8
S21400142003FA32463B460CF069FA42464B460CF04D
S2140014308FFBD4E90A230CF0ABF841EC190B41EC16
S214001440100B0CF011FF174D53EC102B404649467D
S2140014500CF054FAD4E906230CF09AF80CF026FDAA
S214001460C5F86001B0EE490AF0EE690A0CF0C4FF58
S21400147053EC102B404649460CF040FAD4E90823BA
S2140014800CF086F80CF012FDC5F8640166E700BFA4
S2140014900E684C35DA4DA140112D4454FB2109400D
S2140014A05095FF1FD00700200024013CA301BC4A32
S2140014B0D35C012B28D0022B6CD0BA4B186E0CF0E4
S2140014C0C5F99FEDB31B41EC100B0CF0DDFF57EC9C
S2140014D0106BB34BD3E9022310EE100A39460CF01A
S2140014E07FFC002840F0A680AD4D0124D5E91223EC
S2140014F0304639460CF074FC002840F09C800134DD
S21400150040351F2CF2D197E0A54B03EB8414D4E9A9
S2140015100623D4E90A010CF039F806460F46D4E94A
S2140015200823D4E90C010CF031F88046894632468F
S2140015303B46304639460CF0E1F904460D46424635
S2140015404B46404649460CF0D9F902460B46204623
S21400155029460CF01DF841EC100B0CF0F9FF5BEC83
S21400156010AB904C10EE102A5B46404649460CF0F5
S214001570EFFA0CF09BFCC4F8680152465B46304616
S21400158039460CF0E5FA0CF091FC80F00040C4F807
S2140015906C0192E7824D05EB8415D5E902233046AF
S2140015A039460BF0F3FF06460F4695F938000CF067
S2140015B03BF9002200230CF031FC28B3D5E90423C4
S2140015C0304639460CF0C4FAD5E90A230BF0E0FFA2
S2140015D041EC190BB0EE490AF0EE690A0CF044FE35
S2140015E0704C51EC100B0CF061FCC4F86801B0EEC6
S2140015F0490AF0EE690A0CF0FFFE51EC100B0CF0F5
S21400160055FCC4F86C0158E7304607F10041644BBE
S21400161003EB8414D4E904230CF09AFAD4E90A23E1
S2140016200BF0B6FF5CA3D3E900230BF0B1FF41EC4F
S214001630190BCFE70024013CDFF86481A50108EB15
S2140016400503D3E90223304639460BF09FFF0646D2
S2140016500F4618F80530012B28D0022B59D0514BD5
S214001660186F0CF0F3F89FED4A1B41EC100B0CF0D2
S2140016700BFF57EC106B4A4BD3E9022310EE100A0F
S21400168039460CF0ADFB002840F08E80444D012416
S214001690D5E91223304639460CF0A2FB002840F06C
S2140016A08480013440351F2CF2D17FE03C4B03EBA5
S2140016B08414D4E90689D4E904230CF049FA0646D2
S2140016C00F46384D42464B46D4E90A010BF05EFF02
S2140016D032463B460CF012F942464B460BF058FF9A
S2140016E00CF0E4FBC5F87001D4E9088942464B4685
S2140016F0D4E90C010BF04AFF32463B460CF0FEF8EC
S21400170042464B460BF044FF0CF0D0FBC5F8740184
S214001710A5E7234B03EB8414D4E9048994F9380035
S2140017200CF082F832463B460CF0E8F842464B4650
S2140017300CF00EFAD4E90A230BF02AFF41EC190B41
S21400174041EC100B0CF090FD164D53EC102B404660
S21400175049460CF0D3F8D4E906230BF019FF0CF039
S214001760A5FBC5F87001B0EE490AF0EE690A0CF068
S21400177043FE53EC102B404649460CF0BFF8D4E924
S21400178008230BF005FF0CF091FBC5F8740166E723
S2140017900E684C35DA4DA140112D4454FB2109400A
S2140017A05095FF1FD00700200024013CA301BE4A2D
S2140017B0D35C012B28D0022B6CD0BC4B186F0CF0DE
S2140017C045F89FEDB51B41EC100B0CF05DFE57EC99
S2140017D0106BB54BD3E9022310EE100A39460CF015
S2140017E0FFFA002840F0A680AF4D0124D5E9122369
S2140017F0304639460CF0F4FA002840F09C8001345C
S21400180040351F2CF2D197E0A74B03EB8414D4E9A4
S2140018100623D4E90A010BF0B9FE06460F46D4E9C2
S2140018200823D4E90C010BF0B1FE80468946324607
S2140018303B46304639460CF061F804460D464246B3
S2140018404B46404649460CF059F802460B462046A1
S21400185029460BF09DFE41EC100B0CF079FE5BEC7C
S21400186010AB924C10EE102A5B46404649460CF0F0
S2140018706FF90CF01BFBC4F8780152465B46304605
S21400188039460CF065F90CF011FB80F00040C4F806
S2140018907C0192E7844D05EB8415D5E9022330469A
S2140018A039460BF073FE06460F4695F938000BF0E6
S2140018B0BBFF002200230CF0B1FA28B3D5E90423BD
S2140018C0304639460CF044F9D5E90A230BF060FEA1
S2140018D041EC190BB0EE490AF0EE690A0CF0C4FCB4
S2140018E0724C51EC100B0CF0E1FAC4F87801B0EE33
S2140018F0490AF0EE690A0CF07FFD51EC100B0CF073
S214001900D5FAC4F87C0158E7304607F10041664B2B
S21400191003EB8414D4E904230CF01AF9D4E90A235F
S2140019200BF036FE5EA3D3E900230BF031FE41EC4C
S214001930190BCFE70024013CDFF86C81A50108EB0A
S2140019400503D3E90223304639460BF01FFE064650
S2140019500F4618F80530012B29D0022B5AD0534BCE
S214001960D3F880000BF072FF9FED4B1B41EC100B81
S2140019700CF08AFD57EC106B4B4BD3E9022310EEAC
S214001980100A39460CF02CFA002840F09180464D9B
S2140019900124D5E91223304639460CF021FA0028F6
S2140019A040F08780013440351F2CF2D182E03E4B58
S2140019B003EB8414D4E90689D4E904230CF0C8F8B0
S2140019C006460F46394D42464B46D4E90A010BF00F
S2140019D0DDFD32463B460BF091FF42464B460BF090
S2140019E0D7FD0CF063FAC5F88001D4E908894246B1
S2140019F04B46D4E90C010BF0C9FD32463B460BF0D2
S214001A007DFF42464B460BF0C3FD0CF04FFAC5F87F
S214001A108401A4E7244B03EB8414D4E9048994F9E5
S214001A2038000BF001FF32463B460BF067FF42469C
S214001A304B460CF08DF8D4E90A230BF0A9FD41ECD7
S214001A40190B41EC100B0CF00FFC184D53EC102B3F
S214001A50404649460BF052FFD4E906230BF098FDAA
S214001A600CF024FAC5F88001B0EE490AF0EE690AD7
S214001A700CF0C2FC53EC102B404649460BF03EFFE0
S214001A80D4E908230BF084FD0CF010FAC5F88401A5
S214001A9065E700BFAFF300800E684C35DA4DA14015
S214001AA0112D4454FB2109405095FF1FD0070020FC
S214001AB00024013CA301BE4AD35C012B29D0022B93
S214001AC06DD0BC4BD3F880000BF0C0FE9FEDB41B6E
S214001AD041EC100B0CF0D8FC57EC106BB44BD3E970
S214001AE0022310EE100A39460CF07AF9002840F06E
S214001AF0A680AF4D0124D5E91223304639460CF0B6
S214001B006FF9002840F09C80013440351F2CF2D13C
S214001B1097E0A74B03EB8414D4E90623D4E90A0123
S214001B200BF034FD06460F46D4E90823D4E90C0131
S214001B300BF02CFD8046894632463B4630463946F9
S214001B400BF0DCFE04460D4642464B4640464946F0
S214001B500BF0D4FE02460B46204629460BF018FD35
S214001B6041EC100B0CF0F4FC5BEC10AB914C10EE5F
S214001B70102A5B46404649460BF0EAFF0CF096F901
S214001B80C4F8880152465B46304639460BF0E0FF03
S214001B900CF08CF980F00040C4F88C0191E7844D7D
S214001BA005EB8415D5E90223304639460BF0EEFCEA
S214001BB006460F4695F938000BF036FE0022002345
S214001BC00CF02CF928B3D5E90423304639460BF03F
S214001BD0BFFFD5E90A230BF0DBFC41EC190BB0EE96
S214001BE0490AF0EE690A0CF03FFB724C51EC100B00
S214001BF00CF05CF9C4F88801B0EE490AF0EE690A08
S214001C000CF0FAFB51EC100B0CF050F9C4F88C01F8
S214001C1057E7304607F10041654B03EB8414D4E9DF
S214001C2004230BF095FFD4E90A230BF0B1FC5EA366
S214001C30D3E900230BF0ACFC41EC190BCFE70024F2
S214001C40013CDFF86C81A50108EB0503D3E902230C
S214001C50304639460BF09AFC06460F4618F8053013
S214001C60012B29D0022B5AD0524BD3F890000BF000
S214001C70EDFD9FED4B1B41EC100B0CF005FC57ECFB
S214001C80106B4B4BD3E9022310EE100A39460CF0CA
S214001C90A7F8002840F09080454D0124D5E912238E
S214001CA0304639460CF09CF8002840F08680013417
S214001CB040351F2CF2D181E03D4B03EB8414D4E970
S214001CC00689D4E904230BF043FF06460F46394D38
S214001CD042464B46D4E90A010BF058FC32463B46D6
S214001CE00BF00CFE42464B460BF052FC0CF0DEF8B6
S214001CF0C5F89001D4E9088942464B46D4E90C0160
S214001D000BF044FC32463B460BF0F8FD42464B4691
S214001D100BF03EFC0CF0CAF8C5F89401A4E7244B7F
S214001D2003EB8414D4E9048994F938000BF07CFDA5
S214001D3032463B460BF0E2FD42464B460BF008FFB0
S214001D40D4E90A230BF024FC41EC190B41EC100BF0
S214001D500CF08AFA174D53EC102B404649460BF010
S214001D60CDFDD4E906230BF013FC0CF09FF8C5F864
S214001D709001B0EE490AF0EE690A0CF03DFB53EC18
S214001D80102B404649460BF0B9FDD4E908230BF06A
S214001D90FFFB0CF08BF8C5F8940165E7AFF3008005
S214001DA00E684C35DA4DA140112D4454FB210940F4
S214001DB05095FF1FD00700200024013CA301BE4A17
S214001DC0D35C012B29D0022B6DD0BC4BD3F89000EE
S214001DD00BF03CFD9FEDB41B41EC100B0CF054FBDC
S214001DE057EC106BB44BD3E9022310EE100A3946B9
S214001DF00BF0F6FF002840F0A680AF4D0124D5E991
S214001E001223304639460BF0EBFF002840F09C804A
S214001E10013440351F2CF2D197E0A74B03EB841416
S214001E20D4E90623D4E90A010BF0B0FB06460F46B8
S214001E30D4E90823D4E90C010BF0A8FB80468946B8
S214001E4032463B46304639460BF058FD04460D46B2
S214001E5042464B46404649460BF050FD02460B466E
S214001E60204629460BF094FB41EC100B0CF070FB5F
S214001E705BEC10AB914C10EE102A5B464046494690
S214001E800BF066FE0CF012F8C4F8980152465B465A
S214001E90304639460BF05CFE0CF008F880F0004047
S214001EA0C4F89C0191E7844D05EB8415D5E902231F
S214001EB0304639460BF06AFB06460F4695F9380061
S214001EC00BF0B2FC002200230BF0A8FF28B3D5E9E4
S214001ED00423304639460BF03BFED5E90A230BF0C7
S214001EE057FB41EC190BB0EE490AF0EE690A0CF00C
S214001EF0BBF9724C51EC100B0BF0D8FFC4F89801EC
S214001F00B0EE490AF0EE690A0CF076FA51EC100BC6
S214001F100BF0CCFFC4F89C0157E7304607F10041B0
S214001F20654B03EB8414D4E904230BF011FED4E9CB
S214001F300A230BF02DFB5EA3D3E900230BF028FB4E
S214001F4041EC190BCFE70024013CDFF86C81A501BA
S214001F5008EB0503D3E90223304639460BF016FB9F
S214001F6006460F4618F80530012B29D0022B5AD00A
S214001F70524BD3F8A0000BF069FC9FED4B1B41ECD5
S214001F80100B0CF081FA57EC106B4B4BD3E9022385
S214001F9010EE100A39460BF023FF002840F0908020
S214001FA0454D0124D5E91223304639460BF018FF7B
S214001FB0002840F08680013440351F2CF2D181E0A5
S214001FC03D4B03EB8414D4E90689D4E904230BF0D3
S214001FD0BFFD06460F46394D42464B46D4E90A0138
S214001FE00BF0D4FA32463B460BF088FC42464B4692
S214001FF00BF0CEFA0BF05AFFC5F8A001D4E9088919
S21400200042464B46D4E90C010BF0C0FA32463B463A
S2140020100BF074FC42464B460BF0BAFA0BF046FF48
S214002020C5F8A401A4E7244B03EB8414D4E904897F
S21400203094F938000BF0F8FB32463B460BF05EFC9A
S21400204042464B460BF084FDD4E90A230BF0A0FA77
S21400205041EC190B41EC100B0CF006F9174D53EC44
S214002060102B404649460BF049FCD4E906230BF0FA
S2140020708FFA0BF01BFFC5F8A001B0EE490AF0EE90
S214002080690A0CF0B9F953EC102B404649460BF0A0
S21400209035FCD4E908230BF07BFA0BF007FFC5F8F4
S2140020A0A40165E7AFF300800E684C35DA4DA14019
S2140020B0112D4454FB2109405095FF1FD0070020E6
S2140020C00024013CA301BE4AD35C012B29D0022B7D
S2140020D06DD0BC4BD3F8A0000BF0B8FB9FEDB41B43
S2140020E041EC100B0CF0D0F957EC106BB44BD3E965
S2140020F0022310EE100A39460BF072FE002840F05C
S214002100A680AF4D0124D5E91223304639460BF0A0
S21400211067FE002840F09C80013440351F2CF2D129
S21400212097E0A74B03EB8414D4E90623D4E90A010D
S2140021300BF02CFA06460F46D4E90823D4E90C0126
S2140021400BF024FA8046894632463B4630463946EE
S2140021500BF0D4FB04460D4642464B4640464946E5
S2140021600BF0CCFB02460B46204629460BF010FA35
S21400217041EC100B0CF0ECF95BEC10AB914C10EE54
S214002180102A5B46404649460BF0E2FC0BF08EFEFA
S214002190C4F8A80152465B46304639460BF0D8FCD8
S2140021A00BF084FE80F00040C4F8AC0191E7844D4B
S2140021B005EB8415D5E90223304639460BF0E6F9DF
S2140021C006460F4695F938000BF02EFB002200233A
S2140021D00BF024FE28B3D5E90423304639460BF02D
S2140021E0B7FCD5E90A230BF0D3F941EC190BB0EE96
S2140021F0490AF0EE690A0CF037F8724C51EC100BF5
S2140022000BF054FEC4F8A801B0EE490AF0EE690AD5
S2140022100CF0F2F851EC100B0BF048FEC4F8AC01D1
S21400222057E7304607F10041654B03EB8414D4E9C9
S21400223004230BF08DFCD4E90A230BF0A9F95EA366
S214002240D3E900230BF0A4F941EC190BCFE70024E7
S214002250013CDFF86C81A50108EB0503D3E90223F6
S214002260304639460BF092F906460F4618F8053008
S214002270012B29D0022B5AD0524BD3F8B0000BF0CA
S214002280E5FA9FED4B1B41EC100B0CF0FDF857ECFC
S214002290106B4B4BD3E9022310EE100A39460BF0B5
S2140022A09FFD002840F09080454D0124D5E912237B
S2140022B0304639460BF094FD002840F08680013405
S2140022C040351F2CF2D181E03D4B03EB8414D4E95A
S2140022D00689D4E904230BF03BFC06460F46394D2D
S2140022E042464B46D4E90A010BF050F932463B46CB
S2140022F00BF004FB42464B460BF04AF90BF0D6FDBA
S214002300C5F8B001D4E9088942464B46D4E90C0129
S2140023100BF03CF932463B460BF0F0FA42464B4691
S2140023200BF036F90BF0C2FDC5F8B401A4E7244B58
S21400233003EB8414D4E9048994F938000BF074FA9A
S21400234032463B460BF0DAFA42464B460BF000FCB0
S214002350D4E90A230BF01CF941EC190B41EC100BE5
S2140023600BF082FF174D53EC102B404649460BF0FE
S214002370C5FAD4E906230BF00BF90BF097FDC5F868
S214002380B001B0EE490AF0EE690A0CF035F853ECED
S214002390102B404649460BF0B1FAD4E908230BF05F
S2140023A0F7F80BF083FDC5F8B40165E7AFF30080DE
S2140023B00E684C35DA4DA140112D4454FB210940DE
S2140023C05095FF1FD00700200024013CA301BE4A01
S2140023D0D35C012B29D0022B6DD0BC4BD3F8B000B8
S2140023E00BF034FA9FEDB41B41EC100B0CF04CF8DC
S2140023F057EC106BB44BD3E9022310EE100A3946A3
S2140024000BF0EEFC002840F0A680AF4D0124D5E985
S2140024101223304639460BF0E3FC002840F09C803F
S214002420013440351F2CF2D197E0A74B03EB841400
S214002430D4E90623D4E90A010BF0A8F806460F46AD
S214002440D4E90823D4E90C010BF0A0F880468946AD
S21400245032463B46304639460BF050FA04460D46A7
S21400246042464B46404649460BF048FA02460B4663
S214002470204629460BF08CF841EC100B0CF068F85F
S2140024805BEC10AB914C10EE102A5B46404649467A
S2140024900BF05EFB0BF00AFDC4F8B80152465B4633
S2140024A0304639460BF054FB0BF000FD80F0004040
S2140024B0C4F8BC0191E7844D05EB8415D5E90223E9
S2140024C0304639460BF062F806460F4695F9380056
S2140024D00BF0AAF9002200230BF0A0FC28B3D5E9E4
S2140024E00423304639460BF033FBD5E90A230BF0BC
S2140024F04FF841EC190BB0EE490AF0EE690A0BF002
S214002500B3FE724C51EC100B0BF0D0FCC4F8B801C3
S214002510B0EE490AF0EE690A0BF06EFF51EC100BB4
S2140025200BF0C4FCC4F8BC0157E7304607F1004185
S214002530654B03EB8414D4E904230BF009FBD4E9C0
S2140025400A230BF025F85EA3D3E900230BF020F84E
S21400255041EC190BCFE70024013CDFF86C81A501A4
S21400256008EB0503D3E90223304639460BF00EF894
S21400257006460F4618F80530012B29D0022B5AD0F4
S214002580524BD3F840010BF061F99FED4B1B41EC29
S214002590100B0BF079FF57EC106B4B4BD3E9022373
S2140025A010EE100A39460BF01BFC002840F0908015
S2140025B0454D0124D5E91223304639460BF010FC70
S2140025C0002840F08680013440351F2CF2D181E08F
S2140025D03D4B03EB8414D4E90689D4E904230BF0BD
S2140025E0B7FA06460F46394D42464B46D4E90A012D
S2140025F00AF0CCFF32463B460BF080F942464B468B
S2140026000AF0C6FF0BF052FCC5F8C001D4E90889F1
S21400261042464B46D4E90C010AF0B8FF32463B4628
S2140026200BF06CF942464B460AF0B2FF0BF03EFC4C
S214002630C5F8C401A4E7244B03EB8414D4E9048949
S21400264094F938000BF0F0F832463B460BF056F99A
S21400265042464B460BF07CFAD4E90A230AF098FF70
S21400266041EC190B41EC100B0BF0FEFD174D53EC33
S214002670102B404649460BF041F9D4E906230AF0F0
S21400268087FF0BF013FCC5F8C001B0EE490AF0EE68
S214002690690A0BF0B1FE53EC102B404649460BF08E
S2140026A02DF9D4E908230AF073FF0BF0FFFBC5F8F9
S2140026B0C40165E7AFF300800E684C35DA4DA140E3
S2140026C0112D4454FB2109405095FF1FD0070020D0
S2140026D00024013CA301BC4AD35C012B00F0C68059
S2140026E0022B00F00981B94CD4F8E45194ED4F9ACE
S2140026F007EE905A37EE899AB0EE490A0BF0F8FDCD
S214002700F0EE409AB0EE490A0BF032FED4ED737A42
S21400271067EEE97A94ED727A20EE070A37EE800AC1
S214002720D4ED787A20EE270A84ED740AC4F815539F
S21400273010EE103AC4F8193300258DF81C50082600
S21400274008968DF824508DF825508DF826508DF873
S2140027502750562307AA0121284604F075FF04F2E5
S21400276015330093562307AA0121284605F014F8CE
S214002770D4F84031C4F81D33D4F85431C4F82133AA
S2140027808DF81C5008968DF824508DF825508DF83D
S21400279026508DF82750552307AA2946284604F0C8
S2140027A053FF04F21D330093552307AA29462846F3
S2140027B004F0F2FFD4ED787A94ED4F7A67EE877ADC
S2140027C09FED837A67EE877A9FED827A77EE877A37
S2140027D09FED817A67EE877AB6EE007A77EE877A93
S2140027E09FED7E7AF4EEC77AF1EE10FA40F3D480CD
S2140027F0234683ED757A754CD4ED757A9FED787A1D
S21400280067EE877AFCEEE77A0123019300200090BA
S21400281017EE903A9BB20246014607F07BFBD4F8CF
S21400282040010BF013F89FED641B41EC100B0BF00E
S2140028302BFE57EC106B644BD3E9022310EE100A04
S21400284039460BF0CDFA002840F0D0805E4D0124CA
S214002850D5E91223304639460BF0C2FA002840F07C
S214002860C680013440351F2CF2D1C1E0564B03EB35
S2140028708414D4E90623D4E90A010AF087FE064642
S2140028800F46D4E90823D4E90C010AF07FFE8046FF
S214002890894632463B46304639460BF02FF804460A
S2140028A00D4642464B46404649460BF027F8024640
S2140028B00B46204629460AF06BFE41EC100B0BF047
S2140028C047FE5BEC10AB414C10EE102A5B464046D0
S2140028D049460BF03DF90BF0E9FAC4F8C801524638
S2140028E05B46304639460BF033F90BF0DFFA80F0E2
S2140028F00040C4F8CC01F6E6334D05EB8415D5E967
S2140029000223304639460AF041FE06460F4695F940
S21400291038000AF089FF002200230BF07FFA28B364
S214002920D5E90423304639460BF012F9D5E90A23D7
S2140029300AF02EFE41EC190BB0EE490AF0EE690AD9
S2140029400BF092FC214C51EC100B0BF0AFFAC4F8D4
S214002950C801B0EE490AF0EE690A0BF04DFD51ECE5
S214002960100B0BF0A3FAC4F8CC01BCE6304607F116
S2140029700041154B03EB8414D4E904230BF0E8F86C
S214002980D4E90A230AF004FE0DA3D3E900230AF0D3
S214002990FFFD41EC190BCFE79FED127AF4EEC77AF4
S2140029A0F1EE10FA03D4094BC3ED757A23E70E4A0D
S2140029B0064BC3F8D4211EE70E684C35DA4DA1400D
S2140029C0112D4454FB2109405095FF1FD0070020CD
S2140029D00000C84200000000A5C7A5395C8F423F32
S2140029E0000000478FC2753E8FC2753E0024013C32
S2140029F0A301DF4AD35C012B00F01481022B00F008
S214002A005781DC4DD5ED777A67EEE88AD5ED767A94
S214002A1028EE278A78EE887A17EE900A0AF016FFD4
S214002A2006460F46D44CD4E902ABC9A3D3E900232B
S214002A30504659460AF062FF8046894695ED508A10
S214002A40C5A3D3E90023304639460AF057FF42466D
S214002A504B460AF09DFD0BF029FADFEDC87A07EE2B
S214002A60100A67EE277A77EE887AC4ED097A84ED45
S214002A70048A95ED558A84ED058AD5F8E481C4F874
S214002A801880D5F8D031E361B5F85632A4F8B030E6
S214002A90B3A3D3E90023304639460AF02FFF524647
S214002AA05B460AF075FDC4E90201B54B1B7B002BA3
S214002AB000F0AF80D5ED567A68EE277A95ED587A15
S214002AC077EE877AC4ED0F7AD5ED577A28EE278A07
S214002AD0D5ED597A38EE278A84ED108AC4F84480FA
S214002AE0D5F8E011A164D5ED197A95ED5A7A27EE5E
S214002AF0877AD5ED5C6A37EE267A84ED137A95ED03
S214002B005B7A67EE877A95ED5D7A77EE877AC4ED25
S214002B10147AA96E6165D5ED1D7A95ED5E7A27EE7D
S214002B20877AD5ED606A37EE267A84ED167A95EDCB
S214002B305F7A67EE877A95ED617A77EE877AC4EDED
S214002B40177AA96F2166D5ED217A95ED627A27EE80
S214002B50877AD5ED646A37EE267A84ED197A95ED94
S214002B60637A67EE877A95ED657A77EE877AC4EDB5
S214002B701A7AD5F88810E166D5ED257A95ED667A4D
S214002B8027EE877AD5ED686A37EE267A84ED1C7ACA
S214002B9095ED677A67EE877A95ED697A77EE877AAC
S214002BA0C4ED1D7AD5F89810A167D5ED297A95ED74
S214002BB06A7A27EE877AD5ED6C6A37EE267A84ED48
S214002BC01F7A95ED6B7A67EE877A95ED6D7A77EEDC
S214002BD0877AC4ED207AD5F8A810C4F88410D5ED0D
S214002BE02D7A95ED6E7A27EE877AD5ED706A37EEF8
S214002BF0267A84ED227A95ED6F7A67EE877A95EDE0
S214002C00717A77EE877AC4ED237AD5F8B830C4F8AF
S214002C1090305B4A5368013353600BB0BDEC048BB5
S214002C20BDE8F08F524B03EB8414D4E90623D4E9B5
S214002C300A010AF0ABFC06460F46D4E90823D4E99D
S214002C400C010AF0A3FC8046894632463B463046D5
S214002C5039460AF053FE04460D4642464B46404669
S214002C6049460AF04BFE02460B46204629460AF025
S214002C708FFC41EC100B0BF06BFC5BEC10AB3D4C8F
S214002C8010EE102A5B46404649460AF061FF0BF0FC
S214002C900DF9C4F8D80152465B46304639460AF06C
S214002CA057FF0BF003F980F00040C4F8DC01A8E6FB
S214002CB02F4D05EB8415D5E90223304639460AF038
S214002CC065FC06460F4695F938000AF0ADFD002271
S214002CD000230BF0A3F828B3D5E904233046394681
S214002CE00AF036FFD5E90A230AF052FC41EC190B2C
S214002CF0B0EE490AF0EE690A0BF0B6FA1D4C51EC3C
S214002D00100B0BF0D3F8C4F8D801B0EE490AF0EE79
S214002D10690A0BF071FB51EC100B0BF0C7F8C4F806
S214002D20DC016EE6304607F10041114B03EB8414DC
S214002D30D4E904230AF00CFFD4E90A230AF028FC9D
S214002D4009A3D3E900230AF023FC41EC190BCFE7D3
S214002D5050ABAC844E81D83F0F5AD14800C4624075
S214002D60AFBC3460C3E4E43F112D4454FB2109405A
S214002D705095FF1FD0070020600500200AD7233C8F
S214002D801C000020F8B5124E124C58252A46214643
S214002D9030460DF0EBFA06F2B5272A46314638469D
S214002DA00DF0E4FA94F87630B3FA83F35B0984F80E
S214002DB0763084F8D730732384F877302A4639463D
S214002DC004F178000DF0D2FA652384F8D030F8BD0F
S214002DD0D80700209C0500202DE9F04F93B0DFF8BF
S214002DE044A404AC55460FCD0FC40FCD0FC40FCD71
S214002DF00FC495E8030084E80300DFF82C94B9F8C4
S214002E006260B60006F1804606F5CA26336843F0CF
S214002E1080433360DFF8148405220421404609F01D
S214002E2070FC336843F08043336005221146404609
S214002E3009F067FCB9F868309B0003F1804303F59E
S214002E40CA231A6842F080421A6004AD2A46F24944
S214002E50002004F091FAB9F85E40A40004F1804422
S214002E6004F5CA24236843F080432360EB4F022214
S214002E700621384609F07CFD236843F08043236032
S214002E8002220721384609F073FDB9F89630DFF8BC
S214002E90A0B34FF086424BF823209B0003F18043FB
S214002EA003F5CA231A6842F080421A600AF1380312
S214002EB093E8070085E807002A46D949012008F06C
S214002EC04BFE00248DF81040082705978DF8184013
S214002ED08DF819408DF81A408DF81B400F232A46AE
S214002EE01021204604F072FC0121204604F00CF963
S214002EF0234610222146204604F0B4F98DF81040EF
S214002F0005978DF818408DF819408DF81A408DF801
S214002F101B4010232A461121204604F057FC0121AD
S214002F20204604F0F1F8234611222146204604F0FC
S214002F3099F98DF8104005978DF818408DF81940CE
S214002F408DF81A408DF81B4041232A460C21204656
S214002F5004F03CFC0121204604F0D6F823460C225F
S214002F602146204604F07EF98DF8104005978DF82E
S214002F7018408DF819408DF81A408DF81B404223F2
S214002F802A460D21204604F021FC0121204604F0AB
S214002F90BBF823460D222146204604F063F98DF83F
S214002FA0104005978DF818408DF819408DF81A4096
S214002FB08DF81B404B232A460221204604F006FCCF
S214002FC00121204604F0A0F823460222214620468E
S214002FD004F048F98DF8104005978DF818408DF8E4
S214002FE019408DF81A408DF81B404C232A460321C1
S214002FF0204604F0EBFB0121204604F085F823462A
S21400300003222146204604F02DF98DF8104005973E
S2140030108DF818408DF819408DF81A408DF81B4031
S21400302069232A460E21204604F0D0FB01212046C3
S21400303004F06AF823460E222146204604F012F9D0
S2140030408DF8104005978DF818408DF819408DF8CA
S2140030501A408DF81B406A232A460F21204604F0AA
S214003060B5FB0121204604F04FF823460F222146E7
S214003070204604F0F7F88DF8104005978DF81840B4
S2140030808DF819408DF81A408DF81B4019232A46F2
S2140030900421204604F09AFB0121204604F034F86F
S2140030A0234604222146204604F0DCF88DF8104022
S2140030B005978DF818408DF819408DF81A408DF850
S2140030C01B401A232A460521204604F07FFB0121D7
S2140030D0204604F019F8234605222146204604F02F
S2140030E0C1F88DF8104005978DF818408DF81940F6
S2140030F08DF81A408DF81B4023232A4606212046C9
S21400310004F064FB0121204603F0FEFF234606225E
S2140031102146204604F0A6F88DF8104005978DF855
S21400312018408DF819408DF81A408DF81B4024235E
S2140031302A460721204604F049FB0121204603F0D9
S214003140E3FF234607222146204604F08BF88DF83D
S214003150104005978DF818408DF819408DF81A40E4
S2140031608DF81B402D232A463946204604F02EFBB8
S2140031700121204603F0C8FF23463A462146204652
S21400318004F070F88DF8104005978DF818408DF80B
S21400319019408DF81A408DF81B402E232A46092127
S2140031A0204604F013FB0121204603F0ADFF234622
S2140031B009222146204604F055F88DF81040059760
S2140031C08DF818408DF819408DF81A408DF81B4080
S2140031D037232A460A21204604F0F8FA0121204621
S2140031E003F092FF23460A222146204604F03AF8CE
S2140031F08DF8104005978DF818408DF819408DF819
S2140032001A408DF81B4038232A460B21204604F02E
S214003210DDFA01210EE000BF080B002000B00440DC
S2140032202C00002074040100E805010000D00440D2
S21400323000500640204603F067FF23460B22214637
S214003240204604F00FF8B9F85C309B0003F1804389
S21400325003F5CA231A6842F080421A6002223946F1
S214003260CA4809F085FBB9F87E304FF08C424BF81F
S21400327023209B0003F1804303F5CA231A6842F01B
S21400328080421A60C24AC349032006F0BBF8C2490E
S214003290032006F0C1FE22460121C04806F005FACA
S2140032A02B460AF1440A9AE8070003C31A80120C58
S2140032B0AA72019402948DF800408DF80140B9F886
S2140032C082108B0003F1804303F5CA231A6822F0AC
S2140032D080421A604FF08C424BF821201A6842F068
S2140032E080421A60204600F03FFC2946204600F047
S2140032F00BFA2146204600F015FC01A9204600F0F6
S21400330044FB6946204600F091FB204600F09AFCFC
S2140033100322A34B1A702246A249204604F01CFE44
S214003320336843F080433360AC60EC606C61CDF88A
S21400333010800E2305934FF0010A8DF81BA08DF820
S2140033401EA00BF51A2B0BF5807BCDF820B0294676
S214003350504609F0A9F9B9F860904FEA890909F1D1
S214003360804909F5CA29D9F8003043F08043C9F8E6
S2140033700030AC60EC606C618B4B049305978DF865
S2140033801BA08DF81EA003F53323C03308938DF8D9
S21400339024A02946504609F087F9D9F8003043F0B2
S2140033A08043C9F80030AC60EC606C617E4B0493DF
S2140033B0092305938DF81BA08DF81EA07B4B089360
S2140033C08DF824A02946504609F06EF9D9F8003049
S2140033D043F08043C9F80030AC60EC606C61724B1F
S2140033E004934FF00A09CDF814908DF81BA08DF8C1
S2140033F01EA003F53323C03308938DF824A0294676
S214003400504609F051F9336843F080433360AC60AE
S214003410EC606C61CDF81080062305938DF81BA038
S2140034208DF81EA0CDF820B02946504609F03CF98C
S214003430336843F080433360AC60EC606C61CDF879
S2140034401080072305938DF81BA08DF81EA0CDF8DD
S21400345020B02946504609F027F9336843F08043E8
S2140034603360AC60EC606C61CDF8108005978DF829
S2140034701BA08DF81EA0CDF820B02946504609F0B6
S21400348013F9336843F080433360AC60EC606C61E2
S214003490CDF81080092305938DF81BA08DF81EA08B
S2140034A0CDF820B02946504609F0FEF8336843F0C0
S2140034B080433360AC60EC606C61CDF81080CDF872
S2140034C014908DF81BA08DF81EA0CDF820B02946CC
S2140034D0504609F0E9F8336843F080433360AC6047
S2140034E0EC606C61CDF810800B2305938DF81BA063
S2140034F08DF81EA0CDF820B02946504609F0D4F825
S214003500336843F080433360AC60EC606C61CDF8A8
S21400351010800C23059354468DF81BA08DF81EA032
S214003520D846CDF820B004A9504609F0BDF8336857
S21400353043F0804333600025069507950995DFF82C
S21400354078A0CDF810A04FF00D09CDF814908DF8A6
S2140035501B408DF81E40CDF820B004A9204609F087
S214003560A3F804AE124F0FCF0FC63B683380019509
S214003570029503954FF6FF73ADF808300D4FB7F878
S2140035805A60B60006F1804618E000BF00A004406E
S214003590780D0020F094FF1F0495FF1F0060024086
S2140035A01C0C00208569000000C00440C0F00F40DD
S2140035B0C4040100E805010000D0044006F5CA2650
S2140035C0336843F080433360DFF818B1062249467B
S2140035D0584609F0CDF9336843F08043336006223D
S2140035E00C21584609F0C4F9B7F87C30354E4FF038
S2140035F08C4946F823909B0003F1804303F5CA23C9
S2140036001A6842F080421A602F4A04A9022005F088
S214003610F9FE01A9022007F0D1F8B7F862309B0046
S21400362003F1804303F5CA231A6842F080421A6009
S214003630069507950995CDF810A00F2305938DF8EC
S2140036401B408DF81E40CDF8208004A9204609F0C6
S2140036502BF8B7F85C309B0003F1804303F5CA23D0
S2140036601A6842F080421A6002220C21174809F0BC
S2140036707FF9B7F8783046F823909B0003F1804333
S21400368003F5CA231A6842F080421A60104A1149AC
S214003690284605F0B7FE1049284606F0BDFC2A4627
S2140036A021460E4806F001F80D4B83F8144183F8C6
S2140036B00D4183F80E4183F80F4183F8104113B093
S2140036C0BDE8F08F005006406000002000A00440D7
S2140036D0180D0020A094FF1FB494FF1F0080034025
S2140036E06005002000900440704700BF0023037070
S2140036F00C2242708370C370037143718371C3716F
S214003700037243728372704770B584B006460D46E6
S2140037105D4B53F8204041238DF80C3042238DF842
S2140037200D3004A9002341F8083D04AB034413F808
S214003730040C02F007FA2B78029ADA400292226C06
S21400374022F060025B0103F06003134323646B788E
S214003750002B08BF0123626C22F0FF021343636450
S214003760226C22F00C02AB789B0003F00C03134390
S2140037702364226C22F00302EB7803F00303134366
S2140037802364D4F8902022F040022B799B0103F0AA
S21400379040031343C4F890306B79302200924FF404
S2140037A040520192394A926904A901EB860151F808
S2140037B0101C22EA0102002E43D0012E4FD0334BBC
S2140037C09A61AA79012100914FF4807101919B6959
S2140037D004A901EB860151F8101C23EA0103002E10
S2140037E039D0012E45D0294A9361D4F8903023F081
S2140037F00403EA79002A14BF042200221343C4F803
S2140038009030D4F8902022F003022B7A03F00303C2
S2140038101343C4F89030D4F8943023F008036A7A3F
S214003820002A14BF082200221343C4F8943036B985
S214003830AB7A1BBB154A536823F40023536004B0CD
S21400384070BD1B0103F03003134310498B61AA7946
S2140038508B6923F0010302F001021343C3E71B0345
S21400386003F44053134309498B61AA798B6923F407
S2140038708073120202F480721343B4E7034A53685B
S21400388043F400235360DAE7E004010000800440BC
S21400389030B484B0374B53F820301A6CC2F3411260
S2140038A00A705A6C4A701A6CC2F38102012A56D00A
S2140038B0022A0CBF022200228A701A6C02F003024F
S2140038C0CA70D3F89020C2F380120A7100220292C6
S2140038D0012200924FF48072019208220392264A37
S2140038E0926904AC04EB800454F8105C2A4054F847
S2140038F0084CE240012A14BF002201228A713022BD
S21400390000924FF440520192042202920C2203923B
S214003910194A926904AC04EB800454F8105C2A40FF
S21400392054F8084CE240012A1BD0022A0CBF02229F
S21400393000224A71D3F89020C2F38002CA71D3F8ED
S214003940902002F003020A72D3F89430C3F3C00347
S2140039504B7240B100238B7204B030BC704701221A
S214003960AAE70122E5E7044B5B68C3F3C0438B720A
S214003970F2E700BFE004010000800440002303706B
S214003980437083708380C3807047174B53F8203092
S214003990D3F8902022F020020878002814BF2020B8
S2140039A000200243C3F89020D3F8902022F01002A3
S2140039B04878002814BF102000200243C3F8902047
S2140039C0D3F8902022F008028878002814BF082038
S2140039D000200243C3F890208A88C3F88820CA884B
S2140039E0C3F88C20704700BFE00401000C4B53F86E
S2140039F02030D3F89020C2F340120A70D3F89020FB
S214003A00C2F300124A70D3F89020C2F3C0028A7044
S214003A10D3F888208A80D3F88C30CB80704700BFDC
S214003A20E004010000230370437070470C4B53F80A
S214003A302020D2F8943023F004030878002814BF1E
S214003A40042000200343C2F89430D2F8940020F0FB
S214003A5003004B7803F003030343C2F89430704727
S214003A60E0040100064B53F82020D2F89430C3F34C
S214003A7080030B70D2F8943003F003034B7070474A
S214003A80E0040100002303701F234380704730B416
S214003A90124B53F8200053881478A3F5706292B244
S214003AA0052A0BD80E4A556825F4E025556055685A
S214003AB01B0403F4E0232B435360152350F8212006
S214003AC003F01F0322F05F021343002C14BF4022B2
S214003AD00022134340F8213030BC7047E004010058
S214003AE0008004400D4B53F8200050F82130C3F3FB
S214003AF08013137050F8213003F01F0308494968FB
S214003B00152B01D05380704711F4002FFAD0044BC8
S214003B105B68C3F3024303F57063F3E7E004010058
S214003B200080044082B00E2300934FF4606301933C
S214003B300C4B9B6902AA02EB800252F8082C23EA7F
S214003B40020328B1012808D0064A936102B07047E4
S214003B50490001F00E010B43F6E7490201F46061EB
S214003B600B43F1E70080044030B583B00446224B97
S214003B7053F8202000231F2142F823100133102B76
S214003B80FAD1002111640C235364C2F88810C2F8DD
S214003B908C10C2F89010C2F89410C2F8A01004233B
S214003BA0C2F8B030302300934FF440530193134BC8
S214003BB09A6902A800EB840050F8085C22EA050225
S214003BC09A61012200924FF4807201929A6950F82D
S214003BD0080C22EA00029A612046FFF7A3FF44B9C8
S214003BE0064B5A6822F400225A605A6822F4E022F1
S214003BF05A6003B030BD00BFE004010000800440FE
S214003C00044B53F82020D2F8903013F0800FFAD1EE
S214003C10704700BFE0040100034B53F8203053F810
S214003C202100C0F3C0107047E0040100044B53F8B5
S214003C302030123153F82130C3F30B031380704742
S214003C40E00401002DE9F04782B04F4B53F82040C6
S214003C50D4F89430C3F38008D4F8947007F00307C0
S214003C60D4F89060656CEDB2D4F8943043F003035A
S214003C70C4F89430D4F8943043F00403C4F8943075
S214003C80D4F8903023F04003C4F89030636C23F0EF
S214003C90FF0343F00C0363640023C4F8B430C4F895
S214003CA0B830C4F8BC30C4F8C030C4F8C430C4F867
S214003CB0C830C4F8CC3041228DF8042042228DF85A
S214003CC0052002A941F8083DD4F840904FEA591A59
S214003CD002AB184410F8040C01F034FF009B0AF005
S214003CE0030A23FA0AFA294A924512D9284A934225
S214003CF008D9284A934245D9274A934294BF0323BA
S214003D00002300E00123226C22F0600242EA431303
S214003D102364D4F8943043F08003C4F89430D4F885
S214003D20943013F08003FAD1226C22F0600209F07E
S214003D30600949EA02022264D4F8942022F00402C0
S214003D40B8F1000F18BF04231343C4F89430D4F816
S214003D50943023F003031F43C4F89470D4F89030D3
S214003D6023F0400306F040061E43C4F89060002D82
S214003D7008BF0125636C23F0FF031D43656402B092
S214003D80BDE8F0870223BEE7E004010040787D012D
S214003D9081F0FA0203E1F50507C2EB0B042303806A
S214003DA0002343807047F0B4114B53F820200B8853
S214003DB0D2F8C400D2F8C070D2F8BC60D2F8B850BE
S214003DC0D2F8B440C2F8B0303844034433442B44ED
S214003DD0234413F4784F14BF4FF0FF3300239BB2F5
S214003DE0C2F8AC308B78C2F8A030F0BC704700BF89
S214003DF0E0040100064B53F82020D2F8B030C3F39D
S214003E0009030B80D2F8A030DBB24B80704700BFAE
S214003E10E0040100024B184490F90800704700BF08
S214003E20E0040100074B53F82020012905D0D2F802
S214003E30903013F4702FFAD17047136C43F48073EC
S214003E401364F4E7E0040100044B53F82020D2F892
S214003E50903043F07063C2F890307047E004010081
S214003E60034B53F82030D3F89000C0F3036070473C
S214003E70E004010030B490ED007A044601230025EA
S214003E809FED116A03E001331034072B13D0D4EDF5
S214003E90047AB4EEE77AF1EE10FAF4D577EEC77A44
S214003EA0F8EEC66AF4EEE67AF1EE10FA44BFBDEE1E
S214003EB0E76A1D46E7E700EB051003680B60C3687A
S214003EC0136030BC704700BF80969800074B5B6954
S214003ED0DBB2042B06D0802B06D0012B0CBF0120B2
S214003EE004207047022070470320704700E0074018
S214003EF0044BD3F8003113F0807F1ABF024B1868CA
S214003F000020704700400640040D002010B584B025
S214003F100B4600293BD0444AD2F8002112F0007F1D
S214003F207DD1414AD2F8001121F40001C2F80011F7
S214003F304FF08061C2F8001100213C4A1160002851
S214003F4070D05A7A120202F4E062197A01F0070180
S214003F500A433548C0F80421DA79120102F030022B
S214003F609979C90001F008010A435979890001F0DE
S214003F7004010A43C0F808211A79012A29D0E2B1BF
S214003F80022A32D01A68294B1A60294C3BE00023DB
S214003F908DF804308DF80C3001228DF808208DF84D
S214003FA009208DF805208DF8063002238DF807309D
S214003FB004AB204A43F8102DADE71A7B002A14BF45
S214003FC04FF40002002242F001021749C1F8002116
S214003FD0D8E71A7B002A14BF4FF40002002242F0F2
S214003FE001121149C1F80021CCE71A7B002A14BF40
S214003FF04FF403024FF4403242F001020A49C1F87E
S2140040000021BFE7013CFFF773FF18B9002CF9D178
S214004010032005E0002C14BF0020032000E002204F
S21400402004B010BD0020FBE700400640040D002051
S21400403088E7300000127A00084BD3F8003213F0FD
S214004040807F09D0054BD3F8083203F00103002B1C
S214004050034808BF00207047002070470040064015
S21400406000127A0010B582B00B46002938D02D4ACF
S214004070D2F8002212F0007F4FD12A4AD2F800125E
S21400408021F40001C2F800120021C2F80012002834
S21400409046D09A78120202F4E062597801F00701DD
S2140040A00A432049C1F804221A7802F00102C1F836
S2140040B0082259799A791B79002B14BF0323012310
S2140040C0002914BF042100210B43002A14BF4FF41B
S2140040D0000200221343134AC2F80032642410E0A0
S2140040E000238DF8043001228DF805208DF8063067
S2140040F08DF801208DF8022002AB03F8082DB6E7F4
S214004100013CFFF799FF18B9002CF9D1032005E010
S214004110002C14BF0020032000E0022002B010BDD7
S2140041200020FBE700400640054BD3F8003313F0B1
S214004130807F1DBF024BD3F808330248002070472B
S21400414000400640006CDC0210B582B00B46002929
S21400415032D0294AD2F8002312F0007F47D1264AEF
S214004160D2F8001321F40001C2F800134FF080616A
S214004170C2F8001300283DD09A78120202F4E062DA
S214004180597801F007010A431B49C1F804231A783D
S21400419002F00302C1F808239A795B79002B14BF5A
S2140041A001230923002A14BF4FF400020022134300
S2140041B0C1F8003364240EE001238DF80530002298
S2140041C08DF806208DF801308DF8023002AB03F82A
S2140041D0082DBEE7013CFFF7A7FF18B9002CF9D160
S2140041E0032005E0002C14BF0020032000E002207E
S2140041F002B010BD0020FBE70040064008B50F4B9C
S214004200D3F8003613F0807F02D10023184608BD8D
S214004210FFF76EFE03460028F8D00849D1F80826B6
S214004220C2F302220132B0FBF2F3D1F80826C2F341
S2140042300442103203FB02F35B08E7E70040064047
S21400424010B584B00C4699B13D4BD3F8003613F048
S214004250007F72D13A4BD3F8002622F40002C3F84E
S21400426000264FF08062C3F80026A0B9002065E063
S21400427000238DF804308DF80B3001228DF80820CD
S2140042808DF809208DF8053007228DF806208DF868
S214004290073001ACD8E7FFF72BFE63791B0203F467
S2140042A0E063227902F0070213432549C1F8043679
S2140042B063781B0203F4E063A278120402F4F81297
S2140042C01343C1F808362378012B16D04BB1022BC6
S2140042D01FD04FF47A74FFF791FF48BB34B3013C0C
S2140042E0F9E7E379002B14BF4FF40003002343F0F3
S2140042F00103134AC2F80036EBE7E379002B14BF3C
S2140043004FF40003002343F001130D4AC2F80036B1
S214004310DFE7E379002B14BF4FF403034FF4403379
S21400432043F00103064AC2F80036D2E7032005E050
S214004330002C14BF0020032000E0022004B010BDB3
S214004340004006402DE9F04180460D468C78013449
S2140043504E7806FB04460F7807FB0447CB78013BF4
S214004360052B1CD8DFE803F00312151B1B18FFF7FC
S214004370BFFD0009B8F1020F4AD0B8F1030F7CD098
S214004380B8F1010F0DD00020BDE8F081FFF754FE14
S214004390EFE7FFF7C9FEECE7FFF730FFE9E700209D
S2140043A0E7E7EA7802EB42015D4B53F821301B0940
S2140043B004FB03F4A04200F298800B46584901EB38
S2140043C083035B681B0906FB03F6B04200F290808D
S2140043D002EB420301EB83039B681B0907FB03F711
S2140043E0B84200F28880AB781B0403F470231206F0
S2140043F002F0706213432A7802F00F0213436A78C1
S2140044001201D2B21343474A53610020BDE8F0813F
S214004410EA7802EB4201424B03EB81035B6D1B091A
S21400442004FB03F4A04269D80B463D4901EB830325
S2140044309B6D1B0906FB03F6B04262D802EB4203F3
S21400444001EB8303DB6D1B0907FB03F7B8425BD860
S214004450AB781B0403F47023120602F07062134359
S2140044602A7802F00F0213436A781201D2B213437D
S2140044702C4A93610020BDE8F081EB7803EB430102
S214004480274A02EB8102D2F8A820120904FB02F4A4
S214004490A0423CD80A46224901EB8202D2F8AC2060
S2140044A0120906FB02F6B04234D803EB430201EBD6
S2140044B08202D2F8B020120907FB02F7B8422CD8C5
S2140044C0AA78120402F470221B0603F070631343EA
S2140044D02A7802F00F0213436A781201D2B213430D
S2140044E0104AD3610020BDE8F0810120BDE8F081CC
S2140044F00120BDE8F0810120BDE8F0810120BDE883
S214004500F0810120BDE8F0810120BDE8F0810120A6
S214004510BDE8F0810120BDE8F0810120BDE8F08112
S214004520EC0401000040064038B50546FFF7CEFC17
S2140045302946FFF707FF044658B9E8780A220849D3
S214004540013A0B69C3F30363984204D0002AF7D1FB
S2140045500324204638BD002A08BF0324F9E700BF1D
S2140045600040064010B504461B4B1B69C3F30363AB
S214004570013B052B1DD8DFE803F00313161C1C199E
S214004580FFF7B6FC144B1B69C3F303430133B0FBC0
S214004590F3F0012C0FD0ECB1022C14D0002010BD8B
S2140045A0FFF74AFDEEE7FFF7BFFDEBE7FFF726FE56
S2140045B0E8E70020E6E7084B1B69C3F30313013363
S2140045C0B0FBF3F010BD044B1B6903F00F0301337F
S2140045D0B0FBF3F010BD00BF0040064008B50F4B1F
S2140045E01B6AC3F30363062B15D8DFE803F0040841
S2140045F00B0E141411000220FFF7B4FF08BDFFF7DE
S21400460077FC08BDFFF718FD08BDFFF78DFD08BD58
S214004610FFF7F4FD08BD002008BD00BF00400640BF
S21400462008B541B1012931D00020024610B1431E21
S21400463022FA03F008BD0438032852D8DFE800F059
S2140046400B02141DFFF770FD0246294BD3F8040336
S21400465000F00700EAE7FFF7EFFC0246244BD3F82A
S214004660040200F00700E1E7FFF742FC0246204B99
S214004670D3F8040100F00700D8E7FFF7BFFD0246B5
S2140046801B4BD3F8040600F00700CFE704380328D6
S2140046902AD8DFE800F00B02141DFFF745FD02469E
S2140046A0134BD3F80403C0F30220BFE7FFF7C4FCA4
S2140046B002460F4BD3F80402C0F30220B6E7FFF71A
S2140046C017FC02460A4BD3F80401C0F30220ADE7FC
S2140046D0FFF794FD0246064BD3F80406C0F302200B
S2140046E0A4E700200246A1E7002002469EE700BF9E
S2140046F00040064008B5114B1B69C3F30113032B9A
S21400470019D8DFE803F00207101300210620FFF790
S21400471087FF08BD094B186900F00200002818BF83
S2140047204FF4FA4008BD064B186808BD0021052066
S214004730FFF776FF08BD002008BD00BF00800440DC
S214004740080D0020114B1B69C3F38103022B07D011
S214004750032B0ED0002B0CBF4FF4FA30002070470E
S2140047600A4B186900F00200002818BF4FF4FA4000
S2140047707047064B186910F0020006D0186900F062
S2140047800100002818BF4FF47A707047008004407C
S21400479008B5244B5B6813F4006F40D0214B5B6870
S2140047A0C3F303130E2B09D8DFE803F00A080D083D
S2140047B01208171C20252F0829082C00002026E0A8
S2140047C0FFF70CFF23E001210620FFF729FF1EE07C
S2140047D001210420FFF724FF19E001210520FFF73F
S2140047E01FFF14E00020FFF7BDFE10E001210720A8
S2140047F0FFF716FF0BE00120FFF7B4FE07E0FFF718
S214004800A1FF04E0FFF776FF01E04FF4FA30054B16
S2140048105B68C3F302230133B0FBF3F008BD00204E
S21400482008BD00BF0080044010B50C4615380E28A1
S21400483000F2A380DFE800F008131E29333D414B49
S2140048405D6A737E87909900584BDB68C3F30163FB
S214004850022B00F29D80564A52F8233022E0534B3A
S214004860DB68C3F38163022B00F29480504A52F84F
S214004870233017E04D4BDB68C3F30173022B00F2C5
S2140048808B804B4A52F823300CE0484BDB689B0F7A
S214004890022B00F28380464A52F8233002E0FFF7EC
S2140048A077FF03460020002B6AD0002C7CD02360C4
S2140048B010BDFFF71FFF0346F4E73E4B9B78DB096E
S2140048C001D00023EEE7FFF73DFF0346EAE7394B4A
S2140048D09B78DB0964D1354B1B6913F00203E1D0EA
S2140048E0324B1B6903F00103002B18BF4FF47A7399
S2140048F0D8E7304B9B78DB0954D12C4B1B6903F06F
S2140049000203002B18BF4FF4FA43CBE7294B9B78E2
S214004910DB09002B14BF00234FF4FA33C2E7234B06
S2140049201B6CC3F3001383B30120FFF71BFE034683
S2140049300020B8E71D4B1B6CC3F3C003002BF3D15C
S2140049404FF48070B1E7194B1B6CC3F38003002B48
S214004950EAD14FF48070A8E7144B1B6CC3F34003F6
S214004960002BE1D14FF480709FE7104B1B6C13F0C7
S2140049700103D9D14FF4807097E70420002392E713
S214004980042818BF4FF480708FE74FF480708CE7D0
S214004990002387E7002385E7002383E7002381E7DA
S2140049A000237FE700237DE710BD00BF00800440A2
S2140049B00C0D002000D0074030B583B000230193D3
S2140049C02F4B03EB4003B3F8FC309B0003F180430E
S2140049D003F5CA231D68C5F3C0051C6804F0070468
S2140049E0AC4219D31A6812F0804F15D01B68C3F377
S2140049F00263013B052B21D8DFE803F003111620E4
S214004A00201B0620FFF70CFE01900134019BB3FB30
S214004A10F4F405FB04440194019803B030BD04206F
S214004A20FFF7FEFD0190F0E70520FFF7F9FD019086
S214004A30EBE70720FFF7F4FD0190E6E73C38032894
S214004A401BD8DFE800F002080E1401A91520FFF7B6
S214004A50EBFE0024D9E701A91620FFF7E5FE0024A7
S214004A60D3E701A91720FFF7DFFE0024CDE701A951
S214004A701820FFF7D9FE0024C7E70024C5E700BFCB
S214004A80EC04010030B583B00546FFF7B7FB88B1EC
S214004A90062D56D006238DF8073002238DF80630F3
S214004AA001238DF8053002A800F8043DFFF73CFD11
S214004AB0044600E00124FFF737FB10B1032D4AD06F
S214004AC074B9FFF715FA10B1012D4DD0D4B9FFF720
S214004AD0B3FA10B1022D00D01CBB204603B030BD87
S214004AE003238DF8073000228DF8062001228DF86A
S214004AF0052002A800F8043DFFF716FD0446E0E78F
S214004B000124E3E701238DF8073000228DF8062004
S214004B108DF8053002A800F8043DFFF705FD0446B1
S214004B20D5E702238DF8073000238DF806308DF880
S214004B30053002A8012300F8043DFFF7F5FC044603
S214004B40CBE7FFF7F1FA0028CAD1FFF7D1F9002822
S214004B50D6D10124BBE7FFF7CBF90028B6D1FFF783
S214004B606BFA0028B8D1B8E7FFF766FA0028B3D189
S214004B70B3E7174B1B69C3F30363013B052B06D84A
S214004B80DFE803F0031D200505230123C370104949
S214004B900A69104BC2F303121A4492F89C21427021
S214004BA00A69C2F303421A4492F89C2182700A6989
S214004BB002F00F02134493F89C31037070470223EF
S214004BC0C370E4E70323C370E1E70623C370DEE7A0
S214004BD000400640EC04010001383F282DD8DFE8ED
S214004BE000F02A282C262C2C2C242C2C2C2C2C2C7C
S214004BF02C222C2C2C2C2C2C2C2C2C2C2C2C2C2CFA
S214004C002C202C2C2C2C2C2C2C2C2C2C2C2C2C2CEB
S214004C102C2C2C2C2C2C2C2C2C2C2C2C2C2C2C2CCF
S214004C202C2E06207047052070470420704703206E
S214004C307047022070470120704700207047072009
S214004C407047F0B5A5B028B304460646002800F025
S214004C50FF80C54B1B69C3F30363032B00F0C680BC
S214004C60FFF762FA002800F0B88003238DF80730BB
S214004C7000228DF8062001228DF8052024A800F8D1
S214004C808C3DFFF751FC0546002800F0AF80284613
S214004C9025B0F0BD01238DF80B3000228DF80C20D6
S214004CA08DF80D308DF80E208DF808308DF809300F
S214004CB08DF80A308DF816308DF814308DF81520E2
S214004CC08DF80F208DF810308DF811308DF83830B3
S214004CD00D928DF82530A54906918DF81C208DF88B
S214004CE024208DF81D308DF81E2002208DF81F0020
S214004CF08DF820308DF821308DF830308DF8282052
S214004D008DF82F208DF829200C218DF82A108DF88B
S214004D102B208DF82C308DF82D308DF83D3003216A
S214004D208DF83C108DF84B308DF841108DF84020F2
S214004D308DF83F308DF83E308DF845008DF84430C4
S214004D408DF843208DF8421006208DF849008DF826
S214004D5048208DF847308DF846108549229120214D
S214004D6021918DF84C308DF84D208DF84E208DF821
S214004D704F208DF850308DF854308DF853308DF824
S214004D8052208DF851208DF878308DF879308DF8D6
S214004D907A308DF87B308DF87C308DF87D308DF84C
S214004DA083308DF858301792189219921A921B92E7
S214004DB01C921D928DF87E308DF87F308DF8802005
S214004DC08DF881208DF882208DF88C308DF88D300E
S214004DD08DF88E2002AE34463BE700210120FFF717
S214004DE0B3F9054600287FF452AF3EE73146E07837
S214004DF0FFF738F90546002800F0C280FFF766F88E
S214004E00022800F0F780032800F0F780012800F061
S214004E10D180002D7FF43BAF0022564B1A6094F8E9
S214004E20303013B1E26A534B1A6094F8353053B100
S214004E304D490A6A22F0706294F834301B0603F07B
S214004E40706313430B6294F84330002B40F03381B9
S214004E5094F84430E3B194F8455094F8463094F80A
S214004E6047204549486820F400604860496821F4B6
S214004E707F61002D14BF4FF4006000201B01DBB2E1
S214004E80120202F4E06213430B4303433A4A5360B0
S214004E9094F84830DBB194F84A3094F84920364903
S214004EA0096921F03F0194F84C00014394F84B0047
S214004EB0002814BF022000209B0003F00C030B43C5
S214004EC0120102F03002134303432B4A136194F895
S214004ED07030002B37D0284B196C21F0010194F864
S214004EE071200A431A641B6C23F0020394F87220A4
S214004EF0002A14BF0222002213431F4A1364136CB5
S214004F0023F0040394F87320002A14BF042200221E
S214004F101343194A1364136C23F0080394F874209F
S214004F20002A14BF082200221343134A1364136C8A
S214004F3023F0100394F87520002A14BF10220022D4
S214004F4013430D4A136494F85030002B00F0008190
S214004F500A4B626D1A60A26D5A60E26D9A6004F1A7
S214004F6060000121044DCBE00040064000127A00AC
S214004F700094FF1F080D0020008004400C0D002048
S214004F8004F11001607FFEF7C1FF054600287FF49C
S214004F9035AF04F1200194F82800FFF751F90546D3
S214004FA0FEF794FF022825D0032826D0012801D03A
S214004FB0002601E004F13606002D7FF42AAFF378D0
S214004FC0032B1DD08DF80730B3788DF80630737834
S214004FD08DF80530337824A800F88C3DFFF7A4FA46
S214004FE0054600287FF415AFE11DA07BFFF7ACF85F
S214004FF005460EE704F13A06DEE704F13E06DBE777
S21400500094F828300BBB637F93BBE378002B42D128
S2140050100125002D7FF4FDAEE11DA07BFFF794F87F
S214005020054600287FF4F5AEF3788DF80730B378A0
S2140050308DF8063073788DF80530337824A800F89C
S2140050408C3DFFF771FA0546E3E606238DF8073038
S21400505002238DF8063001238DF8053024A800F8C9
S2140050608C3DFFF761FA0546637F7BB10128D0D1FE
S21400507001238DF8073000228DF806208DF80530C4
S21400508024A800F88C3DFFF74FFA0546E378002B7E
S214005090BFD0012DBDD102238DF8073000238DF837
S2140050A006308DF8053024A8012300F88C3DFFF764
S2140050B03BFA0546ADE704F136010120FFF742F959
S2140050C0054600287FF4E3AD04F13A010220FFF71D
S2140050D039F9054600287FF4DAAD04F13E010320D5
S2140050E0FFF730F9054600287FF4D1ADB0E626F08C
S2140050F040761B0603F040733343EB600131C9B2C0
S21400510050F8043BEE684A1ED2B2032A00F2A18091
S21400511001A757F822F000BFEF5000002951000009
S214005120375100004551000026F040669B0603F00C
S21400513040633343E1E726F040561B0703F0405335
S2140051403343DAE726F0404646EA8373444AD360A0
S21400515094F87630EBB1424A936E00209066516820
S21400516021F4805194F878301B0303F480530B43EA
S2140051705360906694F877305BB194F879305B00B2
S21400518003F00E0394F87A2042F080521343344A18
S214005190936614F17C0F3DD0D4F88030002B39D0C4
S2140051A0E36F002B36D000212E482F4D01EB8102F5
S2140051B0D4F880309B5C00EB4303B3F8FC309B00D4
S2140051C003F1804303F5CA231E6826F080461E605E
S2140051D0D4F880309F189E5CBB781B0603F0E06313
S2140051E0FA78D20002F0080213433A7902F0070276
S2140051F013437A78002A14BF4FF0804200221343EC
S21400520000EB4606B6F8FC2045F822300131E36F85
S2140052109942CBD394F8843003B314498B7803F0C7
S2140052207F0394F8852082F0010243EAC213DBB2C2
S2140052308B7094F98630002BBCBF20335BB20B49D1
S2140052400A7903F01F0302F0E00213430B710025F6
S2140052501DE5EE6003297FF651AF79E7002516E5D8
S21400526000800440EC0401000050064000D00740D7
S21400527070B504460D46112807D9232840F28580CC
S2140052804D2840F28580042070BD11287AD8DFE8CA
S21400529000F00913191F24292E33383C41484F5675
S2140052A05D646B720020FFF75DF903460020002D59
S2140052B000F0D9802B6070BD0120FFF753F903463C
S2140052C00020F4E70220FFF74DF903460020EEE742
S2140052D0FFF75EFA03460020E9E7FEF7ADFE034659
S2140052E00020E4E7FEF720FF03460020DFE7FEF796
S2140052F0FFFD03460020DAE7FEF780FF03460020A6
S214005300D5E7594B1B680020D1E7FFF767F903463E
S2140053100020CCE700210420FFF782F90346002096
S214005320C5E701210420FFF77BF903460020BEE70E
S21400533000210520FFF774F903460020B7E7012196
S2140053400520FFF76DF903460020B0E70021062090
S214005350FFF766F903460020A9E701210620FFF7BC
S2140053605FF903460020A2E700210720FFF758F95F
S214005370034600209BE701210720FFF751F903466B
S214005380002094E70023042091E7FFF74DFA70BD54
S214005390242805D804200023002D64D02B6070BD7F
S2140053A0A0F13303DBB21A2B07D8304A22FA03F3F4
S2140053B013F0010F18BF0420EDD12D4B03EB44036F
S2140053C0B3F8FC202B4B53F8223013F0804F37D124
S2140053D04FF48070DFE70120FFF7C4F8034600288B
S2140053E03CD100234FF48070D6E70020FFF7BAF8D0
S2140053F003460028F5D031E00220FFF7B3F8034655
S2140054000028EED02AE016F0080F06D116F0100F8E
S2140054100BD100234FF48070BEE700212046FFF733
S214005420CBFA034616F0100F04D001212046FFF7F2
S214005430C3FA0346002B14BF00204FF48070ABE77E
S2140054400B4B234493F8AC6116F0200FC3D116F033
S214005450400FCAD116F0800FCED1002316F0180FD9
S214005460D1D1002098E770BD080D0020412100042E
S214005470EC0401000050064070B582B004460D46AC
S21400548089B1554B234493F8AC3113F0010F63D127
S21400549013F0180F30D06A78043A032A5AD8DFE897
S2140054A002F02325272901238DF80030FEF7C4FDDE
S2140054B048B104238DF801300123ADF80230ADF871
S2140054C004306D46DDE7FEF72FFE08B10523F1E751
S2140054D0FEF794FE08B10723ECE7FEF709FD002867
S2140054E014BF06234F23E5E7022206E0032204E06A
S2140054F0012202E0062200E0002213F0040F1ABF89
S214005500AE8806F1FF36002613F0020F1ABF698830
S21400551001F1FF310021304B03EB4404B4F8FC40AA
S214005520A30003F1804303F5CA23186820F08040E7
S21400553018602B7863B1120642F0804206F0070628
S2140055403243C90001F008010A43244B43F82420E3
S21400555002B070BD0022D0E72B781F3C042CF7D891
S214005560DFE804F02E22160A03001D490A6C22F01A
S214005570010213430B64EBE7194A126C22F0020295
S214005580002B14BF022300231343154A1364DFE7DE
S214005590134A126C22F00402002B14BF04230023CB
S2140055A013430F4A1364D3E70D4A126C22F0080225
S2140055B0002B14BF082300231343094A1364C7E7CC
S2140055C0074A126C22F01002002B14BF102300238F
S2140055D01343034A1364BBE7EC0401000050064083
S2140055E00080044070B582B005460C46FEF76EFC9F
S2140055F006469DB12B68022B0ED0042B10D0012B33
S2140056000CBF012504256CB12378043B032B56D828
S214005610DFE803F0574F51530225F4E70546F2E75B
S2140056200325F0E7FEF780FD58B103238DF8073019
S21400563000228DF8062001228DF805208DF8043012
S21400564055E0FEF7DBFD58B106238DF80730022340
S2140056508DF8063001238DF805308DF8043046E0CD
S214005660FEF746FC50B101238DF8073000228DF876
S21400567006208DF805308DF8043038E0FEF7DCFCA7
S214005680A8B302238DF807309D4208D000238DF87A
S21400569006308DF8053001238DF8043027E001230D
S2140056A08DF8063000238DF8053003238DF804307E
S2140056B01DE0032306E0012304E0062302E0FF23A7
S2140056C000E002238DF807300F4B62881A4492F8E8
S2140056D0FC218DF80620A2881A4492F8FC218DF849
S2140056E00520E288134493F8FC318DF80430B54267
S2140056F005D001A92846FEF725FE02B070BD01A818
S214005700FEF712FFF9E700BFEC040100154B1B691A
S214005710C3F30363013B052B20D8DFE803F0031631
S214005720191F1F1C062303700E4A1369C3F3034395
S214005730013343801369C3F3031301338380136972
S21400574003F00F030133C380704704230370EBE7B5
S21400575005230370E8E707230370E5E704230370D7
S214005760E2E700BF004006402DE9F04186B004465F
S2140057700D4631B38889FFF72FFA8046E889FFF790
S2140057802BFA07462E78201F172800F23881DFE80C
S21400579010F01C0057008F00E40036013601360179
S2140057A0360136013601360136013601360136013C
S2140057B0360136013601360136013601360136012C
S2140057C01C010127B8463E46DDE78E4B1B69C3F336
S2140057D00363022B1FD0002465B301238DF80D3020
S2140057E08DF80C3000228DF80E208DF809808DF88B
S2140057F00A7006A901F8103D3046FEF733FC034652
S214005800002B40F0E980002C00F0E68001A8FEF7AF
S2140058108BFE0346E0E00EB90123DDE001A8FFF7AA
S214005820A8F90220FFF72EF90346002840F0D4809E
S2140058303446D1E700210120FEF714FC0346DFE7DB
S214005840704B1B69C3F30363032B1CD000244DB3BA
S21400585000238DF80E308DF809808DF80A708DF8CB
S21400586008308DF80D3002A93046FEF76DFC034671
S214005870002B40F0B180002C00F0AE8001A8FEF7AF
S21400588053FE0346A8E00EB90123A5E001A8FFF7E2
S21400589070F90320FFF7F6F80346002840F09C80D6
S2140058A03446D4E700213046FEF74EFC0346DFE7D9
S2140058B0544B1B69C3F30363012B2FD00024002D28
