S01D000046696E616C5F70726F6A6563745F74656D706C6174652E6D6F7469
S21400000000400020B50400001D0500001D0500008E
S2140000101D0500001D0500001D0500000000000075
S2140000200000000000000000000000001D050000A9
S2140000301D050000000000001D05000031C6000080
S214000040956900009F690000A9690000B369000077
S214000050BD690000C7690000D1690000DB690000C7
S214000060E5690000EF690000F9690000036A000016
S2140000700D6A0000176A0000216A00002B6A000063
S214000080356A00001D0500001D0500001D05000066
S2140000901D0500001D0500001D0500001D050000D3
S2140000A01D0500001D0500001D0500001D050000C3
S2140000B01D0500001D0500001D0500001D050000B3
S2140000C01D0500001D0500001D0500001D050000A3
S2140000D01D0500001D0500001D050000BDC3000035
S2140000E0C7C300001D0500001D0500001D0500001B
S2140000F01D0500001D0500001D0500001D05000073
S2140001000BC400001D0500001D0500001D050000B5
S2140001101D0500001D0500001D0500001D05000052
S2140001201D0500001D0500001D0500001D05000042
S2140001301D0500001D0500001D0500001D05000032
S2140001401D0500001D0500001D0500001D05000022
S2140001501D0500001D0500001D0500001D05000012
S2140001601D0500001D0500001D0500001D05000002
S2140001701D0500001D050000D98D0000E38D000060
S214000180ED8D0000F78D0000018E00001D050000BB
S2140001901D0500000B8E0000158E00001D050000DA
S2140001A01F8E00001D0500001D0500001D05000037
S2140001B0338E00003D8E00001D050000478E0000B7
S2140001C01D0500001D0500001D050000219E000005
S2140001D02D9E0000399E0000459E0000F59500000B
S2140001E01D050000519E00005D9E0000699E0000F7
S2140001F0759E0000359600001D050000819E0000DB
S2140002008D9E0000999E0000A59E00007596000039
S2140002101D050000B19E0000BD9E0000C99E0000A6
S214000220D59E0000B59600001D0500001D050000C7
S2140002301D0500001D0500001D0500001D05000031
S2140002401D0500001D0500001D0500001D05000021
S2140002501D0500001D0500001D0500001D05000011
S2140002601D0500001D0500001D0500001D05000001
S2140002701D0500001D0500001D0500001D050000F1
S2140002801D0500001D0500001D0500001D050000E1
S2140002901D0500001D0500001D0500001D050000D1
S2140002A01D0500001D0500001D0500001D050000C1
S2140002B01D0500001D0500001D0500001D050000B1
S2140002C01D0500001D0500001D0500001D050000A1
S2140002D01D0500001D0500001D0500001D05000091
S2140002E01D0500001D0500001D0500001D05000081
S2140002F01D0500001D0500001D0500001D05000071
S2140003001D0500001D0500001D0500001D05000060
S2140003101D0500001D0500001D0500001D05000050
S2140003201D0500001D0500001D0500001D05000040
S2140003301D0500001D0500001D0500001D05000030
S2140003401D0500001D0500001D0500001D05000020
S2140003501D0500001D0500001D0500001D05000010
S2140003601D0500001D0500001D0500001D05000000
S2140003701D0500001D0500001D0500001D050000F0
S2140003801D0500001D0500001D0500001D050000E0
S2140003901D0500001D0500001D0500001D050000D0
S2140003A01D0500001D0500001D0500001D050000C0
S2140003B01D0500001D0500001D0500001D050000B0
S2140003C01D0500001D0500001D0500001D050000A0
S2140003D01D0500001D0500001D0500001D05000090
S2140003E01D0500001D0500001D0500001D05000080
S2140003F01D0500001D0500001D050000FFFFFFFF96
S214000400FFFFFFFFFFFFFFFFFFFFFFFFFE7FFFFF78
S214000410044B05481B1A062B02D9044B03B1184798
S214000420704700BF3FA1FF1F3CA1FF1F0000000058
S21400043005490648091A891001EBD171491002D006
S214000440034B03B1184770473CA1FF1F3CA1FF1F99
S2140004500000000010B5064C237843B9FFF7D8FF1C
S214000460044B13B10448AFF300800123237010BD82
S2140004700000002000000000840E010008B5084BB4
S2140004801BB108490848AFF300800848036813B951
S214000490BDE80840CCE7064B002BF9D09847F7E7B5
S2140004A00000000004000020840E010038A1FF1F99
S2140004B00000000072B64FF000014FF000024FF04F
S2140004C000034FF000044FF000054FF000064FF019
S2140004D00007B846B946BA46BB46BC460A490B4A68
S2140004E0521A013A05DD0020042308601944043A34
S2140004F0FBDA07488546074880470748804762B6C4
S2140005000BF0A8FFFEE700000090FF1F0040002051
S2140005100040002089D50000B1D40000FFF7FEBFE0
S214000520054A537AB3FA83F35B094370937AB3FAB6
S21400053083F35B09837070471C00002003680B6020
S21400054043681360704703680B6043681360704726
S21400055010B582B05D4B997AB1FA81F25209DA721F
S2140005605B7A002B40F09680584B1A7301225A7221
S2140005704B1CDBB2632B40F298800022534B9A72DE
S214000580002900F09580524B1A78524B93F8253389
S214000590012A14BF00210121994206D0032A04D063
S2140005A0002000214C4AC2E90001494A13704A4C17
S2140005B000224A4BD4E900010DF056F8C4E90001C8
S2140005C0444C0DF0B7FC204490F8573284F8BC3207
S2140005D0012204F52F7110460BF05AF9404A1021FB
S2140005E0002007F0F5F93F4A1121002007F0F0F946
S2140005F03D4A0C21002007F0EBF93C4A0D21002073
S21400060007F0E6F93A4A0221002007F0E1F9394AF4
S2140006100321002007F0DCF9374A0E21002007F0FE
S214000620D7F9364A0F21002007F0D2F9344A0421C0
S214000630002007F0CDF9334A0521002007F0C8F95D
S214000640314A0621002007F0C3F9304A072100206E
S21400065007F0BEF92E4A0821002007F0B9F92D4A06
S2140006600921002007F0B4F92B4A0A21002007F0E0
S214000670AFF92A4A0B21002007F0AAF901230193BB
S214000680002100914FF480430A46032009F0AEFC97
S21400069002B010BD0133DBB2132B03D900220B4B83
S2140006A05A7265E7094A537262E7084A937267E727
S2140006B00848094991F81B3180F825335A22BB3186
S2140006C000F516700FF0BEFE5DE700BF1C000020B0
S2140006D0240C0020D8070020600500200000F03F12
S2140006E02C040020740C0020B002002048030020D8
S2140006F04007002064020020280C0020180200207A
S214000700C00C00208C070020FC020020E003002024
S2140007107804002094030020C40400201005002064
S2140007202DE9F04F2DED088B8BB0064B93F81C315E
S21400073073B9054B5A68034BD3F8AC30D31A09EE9D
S214000740903A07E0600500201C0000200000000032
S2140007505FED029AE04DE14B5B68C5F8AC300023D4
S21400076085F81C31DE480CF0ABF8DE4CC0F3803068
S21400077084F82603D4F84C322366D4F850326366E5
S214000780D4F84432A366D4F84832E366D4F83C3250
S2140007902367D4F840326367D4F83432A367D4F8BA
S2140007A03832E367D4F82C32C4F88030D4F83032CC
S2140007B0C4F88430D4F82432C4F88830D4F8283208
S2140007C0C4F88C30D4F81C32C4F89030D4F82032F8
S2140007D0C4F89430D4F81432C4F89830D4F81832E8
S2140007E0C4F89C30D4F80C32C4F8A030D4F81032D8
S2140007F0C4F8A430D4F80432C4F8A830D4F80832C8
S214000800C4F8AC30D4F8FC31C4F8B030D4F80032B8
S214000810C4F8B430D4F8F431C4F8B830D4F8F831A9
S214000820C4F8BC302B69C4F8C0306B69C4F8C43057
S214000830AB69C4F8C830EB69C4F8CC306022A118A4
S21400084004F1D0000FF0FEFD04F59A7204F59871DD
S21400085004F1C00003F07AFB95F81A31002B40F043
S214000860F481012285F81A2185F819219D4B93F809
S2140008703533002B00F03F824FF480719A480CF01D
S21400088019F8984B93F83433002B00F09E824FF4FF
S214000890007195480CF00EF8924B93F83333002B0A
S2140008A000F099824FF480618F480CF003F8002422
S2140008B08DF81C40ADF81E4007AA2146204603F0DE
S2140008C052F9204603F008FA0DF11A022146204696
S2140008D003F018FABDF81A30824A536092F83323B0
S2140008E072B107EE903AF8EE677A9FED807A77EE6F
S2140008F0C77AB6EE087A67EE877A7A4BC3ED4E7AF9
S214000900784B93F835331BB3764BD3ED4D6A724A6A
S214000910D3ED4C7A92ED047A37EEC77AF3EE047A8A
S21400092077EEC77A9FED727A67EE877A92ED077A4E
S21400093036EEC77A9FED6F6A27EE067A77EE877AED
S2140009409FED6D7A66EE876A77EEA67AC3ED4E7AED
S214000950634D28460BF0B4FF624CC0F3801084F859
S214000960270328460BF0ACFFC0F3C01084F828031A
S21400097028460BF0A5FFC0F3002084F8290328467C
S2140009800BF09EFFC0F3402084F82A0328460BF0A5
S21400099097FFC0F3802084F82B0328460BF090FFC7
S2140009A0C0F3C02084F82C0328460BF089FFC0F360
S2140009B0003084F82D0328460BF082FFC0F3403049
S2140009C084F82E0394F83433002B40D094F82C137C
S2140009D094F82D339B0103EB411394F827130B4433
S2140009E094F82B1303EB011394F82A1303EBC103BB
S2140009F094F8291303EB810394F8281303EB4103BF
S214000A0003EBC01307EE903AFAEECF7A324B93ED33
S214000A10077A37EEC77A93ED106ADFED386A67EE2D
S214000A20266A76EE866ADFED345A67EEA57A76EEAB
S214000A30A77AC4ED4E7ADFED327A67EE277A9FED1D
S214000A40317A67EE877A77EE867AC3ED107A2E4A89
S214000A50D2F880302349C3F3800381F82F33D2F8CD
S214000A608030C3F3400381F831331368C3F3402367
S214000A7081F830335368A1F85632106820F40070BD
S214000A8010601268144AB2F8B8001B1A1BB207EEC0
S214000A90903AF8EEE77A9FED1D7A67EE877A92ED48
S214000AA0087A77EE877AC2ED087A9FED197A67EEB4
S214000AB0877A9FED187A67EE877AC1ED4F7A92F8BB
S214000AC01531002B00F08D81126BC1F8E021024B2E
S214000AD093F8163120E000BF600500201C000020BF
S214000AE000F10F40D8070020C0F00F40000000447F
S214000AF000803BC5002099450000C84200409C4548
S214000B00000048420AD7233C00A00340EC51B83D01
S214000B1035FA8E3CCDCC4CBE002B00F07581C64B12
S214000B205A6BC64BC3F8E421C54801220592C54B53
S214000B3004930392029300F108030193031D0093AC
S214000B400346021FA0F1AC0108380BF099FCBA4B23
S214000B5093F8173183B9B84BF8EE697A9FEDBA7AF5
S214000B6067EE877A93ED297A67EE877A93ED0E7AA9
S214000B7077EE877AC3ED0E7AAF4B93F8183183B9C8
S214000B80AD4BF8EE697A9FEDB07A67EE877A93ED13
S214000B902A7A67EE877A93ED0F7A77EE877AC3ED37
S214000BA00F7AA54B002183F81511A44AD2ED787A66
S214000BB0C3ED0C7A9FEDA57A27EE877AD2ED4E7AB2
S214000BC077EEC77A9FEDA27A67EE877AC3ED277A2B
S214000BD083F81611D2F8E4015863D2F8F001C3F88E
S214000BE0A00083F81711D2F8E801C3F8A40083F830
S214000BF01811D2F8EC11C3F8A810586AC2F84001D0
S214000C000CF090FE9FED8A1B41EC100B0DF0A8FC3B
S214000C1057EC106B8F4BD3E9022310EE100A3946BF
S214000C200DF04AF9002840F019818A4D0124D5E9D3
S214000C301223304639460DF03FF9002840F00F8168
S214000C40013440351F2CF2D10AE17B4B93F8193161
S214000C50012B0CD0022B54D0784B93F82633002B64
S214000C6040F08B800122744B83F81921FEE5734B0C
S214000C7093F82633B3B3714A92ED4C6A6E4BD3EDBC
S214000C80046A76EE665A92ED4D7AD3ED077AB4EEA4
S214000C90E77AF1EE10FA0AD5B3EE045AF4EEC55A26
S214000CA0F1EE10FA03D8022283F81921DEE5B4EE3D
S214000CB0E77AF1EE10FA10DCB3EE045AF4EEC55AF9
S214000CC0F1EE10FA09DCB4EE677AF1EE10FA09D10B
S214000CD0B4EE666AF1EE10FA04D10322564B83F89E
S214000CE01921C3E5554B012283F83323002283F8EC
S214000CF0342383F835234FF4807157480BF0DCFD1E
S214000D00BFE54E4B93F8263323B901224A4B83F8AE
S214000D101921ABE5494B93ED4D7A474BD3ED077A56
S214000D20B4EEE77AF1EE10FA18DC444B93ED4C6A19
S214000D30414BD3ED046A36EE665AF3EE045AB4EE2F
S214000D40E55AF1EE10FA09DCB4EE677AF1EE10FA25
S214000D5009D1B4EE666AF1EE10FA04D10322364BDE
S214000D6083F8192182E5354B002283F8332383F874
S214000D703423012283F835237EE5304B93ED4D7AFC
S214000D802D4BD3ED077AB4EEE77AF1EE10FA12D5D2
S214000D902A4BD3ED4C7A284B93ED047A77EEC77A3C
S214000DA0B3EE047AF4EEC77AF1EE10FA03D8022214
S214000DB083F819215AE5214B002283F833230121B9
S214000DC083F8341383F8352395E74FF400712248EF
S214000DD00BF072FD60E54FF480611F480BF06CFD70
S214000DE065E5F8EE697A9FED187A67EE877A124B1A
S214000DF093ED277A67EE877A93ED0C7A77EE877A0B
S214000E000E4BC3ED787A62E6F8EE697A9FED0E7ABD
S214000E1067EE877A084B93ED287A67EE877A93ED2C
S214000E200D7A77EE877A054BC3ED797A7CE600BFBC
S214000E300E684C35DA4DA14060050020D80700202A
S214000E40C0090020B40501000AD7233C0000C842B0
S214000E506F12033A5095FF1FC0F00F400024013C6C
S214000E60DFF83C83A50108EB0503D3E902233046EF
S214000E7039460CF0F7FB06460F4618F80530012BEE
S214000E8035D0022B66D0C44AC44BD2ED0E8AD3EDC1
S214000E90517A78EEE78A92ED0F8AD3ED527A38EEE1
S214000EA0678AD3F840010CF03DFD9FEDB71B41EC7F
S214000EB0100B0DF055FB57EC106BB94BD3E9022322
S214000EC010EE100A39460CF0F7FF002840F081803B
S214000ED0B34D0124D5E91223304639460CF0ECFF19
S214000EE0002877D1013440351F2CF3D173E0AC4B8A
S214000EF003EB8414D4E90689D4E904230CF094FEA9
S214000F0006460F46A54D42464B46D4E90A010CF06C
S214000F10A9FB32463B460CF05DFD42464B460CF0C4
S214000F20A3FB0DF02FF8C5F84401D4E90889424622
S214000F304B46D4E90C010CF095FB32463B460CF0D0
S214000F4049FD42464B460CF08FFB0DF01BF8C5F8EA
S214000F50480198E7924B03EB8414D4E9048994F98A
S214000F6038000CF0CDFC32463B460CF033FD4246D2
S214000F704B460CF059FED4E90A230CF075FB41EC05
S214000F80180B41EC100B0DF0DBF9844D53EC102BD5
S214000F90404649460CF01EFDD4E906230CF064FBDF
S214000FA00CF0F0FFC5F84401B0EE480AF0EE680A0F
S214000FB00DF08EFA53EC102B404649460CF00AFD15
S214000FC0D4E908230CF050FB0CF0DCFFC5F8480110
S214000FD059E70024013CA301714AD35C012B00F0C1
S214000FE08C80022B00F0E8806C4C94ED539A28EE2F
S214000FF0899A94ED54AA28EE0AAA39EE0A9A84ED44
S214001000559A19EE900A0CF06BFC61A3D3E9002305
S2140010100CF0E0FC0CF0B6FF0CF084FC06460F4625
S214001020DFED607A69EE277A17EE900A0CF07AFC0C
S21400103032463B460CF0F8FD0CF0A4FF09EE900A91
S214001040554D95ED0AAA39EECAAADFED577A29EE74
S214001050279A3AEE09AA94ED4FBA3AEE4BAADFED7C
S214001060537A6AEE277A17EE900A0CF05BFC32464B
S2140010703B460CF0D9FD0CF085FF09EE100A4C48F3
S2140010800BF01EFCC0F3C03084F8320395ED0BBAAB
S21400109039EE4BBADFED477A2AEE27AA3BEE0AAACC
S2140010A007EE900AF8EE677A2AEE27BAD4F84001DF
S2140010B00CF038FC9FED341B41EC100B0DF050FA91
S2140010C057EC106B364BD3E9022310EE100A394664
S2140010D00CF0F2FE002840F0BF80314D0124D5E927
S2140010E01223304639460CF0E7FE002840F0B58063
S2140010F0013440351F2CF2D1B0E0294B03EB8414A9
S214001100D4E90623D4E90A010CF0ACFA06460F46E9
S214001110D4E90823D4E90C010CF0A4FA80468946E9
S21400112032463B46304639460CF054FC04460D46E3
S21400113042464B46404649460CF04CFC02460B469F
S214001140204629460CF090FA41EC100B0DF06CFA94
S2140011505BEC10AB114C10EE102A5B46404649463D
S2140011600CF062FD0CF00EFFC4F84C0152465B46D4
S214001170304639460CF058FD0CF004FF80F0004075
S214001180C4F8500130E700BF0E684C35DA4DA14078
S2140011907B14AE47E17A843F60050020D807002024
S2140011A05095FF1FDE93073D7C61723E146E094327
S2140011B000F10F40CBB9EC43C74D05EB8415D5E9DC
S2140011C00223304639460CF04DFA06460F4695F98E
S2140011D038000CF095FB002200230CF08BFE28B3A1
S2140011E0D5E90423304639460CF01EFDD5E90A231E
S2140011F00CF03AFA41EC1A0BB0EE4A0AF0EE6A0A24
S2140012000DF09EF8B54C51EC100B0CF0BBFEC4F87C
S2140012104C01B0EE4A0AF0EE6A0A0DF059F951ECAC
S214001220100B0CF0AFFEC4F85001DDE6304607F1B7
S2140012300041A94B03EB8414D4E904230CF0F4FC1E
S214001240D4E90A230CF010FA9FA3D3E900230CF08C
S2140012500BFA41EC1A0BCFE70024013CA3019E4A8F
S214001260D35C012B29D0022B6DD09C4BD3F84001C8
S2140012700CF058FB9FED961B41EC100B0DF070F92F
S21400128057EC106B944BD3E9022310EE100A394644
S2140012900CF012FE002840F0A6808F4D0124D5E900
S2140012A01223304639460CF007FE002840F09C809A
S2140012B0013440351F2CF2D197E0874B03EB8414A2
S2140012C0D4E90623D4E90A010CF0CCF906460F4609
S2140012D0D4E90823D4E90C010CF0C4F98046894609
S2140012E032463B46304639460CF074FB04460D4603
S2140012F042464B46404649460CF06CFB02460B46BF
S214001300204629460CF0B0F941EC100B0DF08CF994
S2140013105BEC10AB714C10EE102A5B46404649461B
S2140013200CF082FC0CF02EFEC4F8580152465B46C8
S214001330304639460CF078FC0CF024FE80F0004075
S214001340C4F85C0191E7644D05EB8415D5E90223EA
S214001350304639460CF086F906460F4695F93800B1
S2140013600CF0CEFA002200230CF0C4FD28B3D5E919
S2140013700423304639460CF057FCD5E90A230CF016
S21400138073F941EC1A0BB0EE4A0AF0EE6A0A0CF05A
S214001390D7FF524C51EC100B0CF0F4FDC4F858017A
S2140013A0B0EE4A0AF0EE6A0A0DF092F851EC100B15
S2140013B00CF0E8FDC4F85C0157E7304607F1004141
S2140013C0454B03EB8414D4E904230CF02DFCD4E93C
S2140013D00A230CF049F93CA3D3E900230CF044F9A6
S2140013E041EC1A0BCFE70024013CDFF8EC80A501A6
S2140013F008EB0503D3E90223304639460CF032F9F0
S21400140006460F4618F80530012B28D0022B67D069
S214001410324B186E0CF086FA9FED2D1B41EC100B2C
S2140014200DF09EF857EC106B2B4BD3E9022310EE11
S214001430100A39460CF040FD002840F09080264DFA
S2140014400124D5E91223304639460CF035FD002834
S21400145040F08680013440351F2CF2D181E01E4BCF
S21400146003EB8414D4E90689D4E904230CF0DCFBEE
S21400147006460F46194D42464B46D4E90A010CF083
S214001480F1F832463B460CF0A5FA42464B460CF0C5
S214001490EBF80CF077FDC5F86001D4E90889424600
S2140014A04B46D4E90C010CF0DDF832463B460CF016
S2140014B091FA42464B460CF0D7F80CF063FDC5F89F
S2140014C06401A5E7AFF30080112D4454FB210940C9
S2140014D00E684C35DA4DA1405095FF1FD807002006
S2140014E0BD4B03EB8414D4E9048994F938000CF05E
S2140014F007FA32463B460CF06DFA42464B460CF075
S21400150093FBD4E90A230CF0AFF841EC1A0B41EC3C
S214001510100B0CF015FFB14D53EC102B404649460E
S2140015200CF058FAD4E906230CF09EF80CF02AFDCD
S214001530C5F86001B0EE4A0AF0EE6A0A0CF0C8FF81
S21400154053EC102B404649460CF044FAD4E90823E5
S2140015500CF08AF80CF016FDC5F8640158E7002474
S214001560013CA3019C4AD35C012B28D0022B6CD0F3
S2140015709A4B186E0CF0D6F99FED931B41EC100BAE
S2140015800CF0EEFF57EC106B934BD3E9022310EEF2
S214001590100A39460CF090FC002840F0A6808E4DCC
S2140015A00124D5E91223304639460CF085FC002884
S2140015B040F09C80013440351F2CF2D197E0864BDA
S2140015C003EB8414D4E90623D4E90A010CF04AF8A4
S2140015D006460F46D4E90823D4E90C010CF042F87D
S2140015E08046894632463B46304639460CF0F2F98C
S2140015F004460D4642464B46404649460CF0EAF93C
S21400160002460B46204629460CF02EF841EC100BFD
S2140016100DF00AF85BEC10AB704C10EE102A5B462F
S214001620404649460CF000FB0CF0ACFCC4F86801E0
S21400163052465B46304639460CF0F6FA0CF0A2FCF1
S21400164080F00040C4F86C0192E7634D05EB84150A
S214001650D5E90223304639460CF004F806460F4614
S21400166095F938000CF04CF9002200230CF042FCEF
S21400167028B3D5E90423304639460CF0D5FAD5E927
S2140016800A230BF0F1FF41EC1A0BB0EE4A0AF0EE1B
S2140016906A0A0CF055FE514C51EC100B0CF072FC23
S2140016A0C4F86801B0EE4A0AF0EE6A0A0CF010FFC1
S2140016B051EC100B0CF066FCC4F86C0158E7304691
S2140016C007F10041444B03EB8414D4E904230CF0E7
S2140016D0ABFAD4E90A230BF0C7FF3DA3D3E90023F6
S2140016E00BF0C2FF41EC1A0BCFE70024013CDFF8F9
S2140016F0E880A50108EB0503D3E902233046394606
S2140017000BF0B0FF06460F4618F80530012B28D020
S214001710022B65D0314B186F0CF004F99FED2A1B95
S21400172041EC100B0CF01CFF57EC106B2A4BD3E966
S214001730022310EE100A39460CF0BEFB002840F0DB
S2140017408E80254D0124D5E91223304639460CF00B
S214001750B3FB002840F08480013440351F2CF2D1C2
S2140017607FE01D4B03EB8414D4E90689D4E90423F7
S2140017700CF05AFA06460F46184D42464B46D4E938
S2140017800A010BF06FFF32463B460CF023F9424647
S2140017904B460BF069FF0CF0F5FBC5F87001D4E979
S2140017A0088942464B46D4E90C010BF05BFF3246F3
S2140017B03B460CF00FF942464B460BF055FF0CF03B
S2140017C0E1FBC5F87401A5E70E684C35DA4DA1407B
S2140017D0112D4454FB2109405095FF1FD8070020C7
S2140017E0BF4B03EB8414D4E9048994F938000CF059
S2140017F087F832463B460CF0EDF842464B460CF076
S21400180013FAD4E90A230BF02FFF41EC1A0B41EC34
S214001810100B0CF095FDB34D53EC102B404649468B
S2140018200CF0D8F8D4E906230BF01EFF0CF0AAFB48
S214001830C5F87001B0EE4A0AF0EE6A0A0CF048FEEF
S21400184053EC102B404649460CF0C4F8D4E9082364
S2140018500BF00AFF0CF096FBC5F874015AE700245B
S214001860013CA3019E4AD35C012B28D0022B6CD0EE
S2140018709C4B186F0CF056F89FED951B41EC100B27
S2140018800CF06EFE57EC106B954BD3E9022310EE6E
S214001890100A39460CF010FB002840F0A680904D48
S2140018A00124D5E91223304639460CF005FB002802
S2140018B040F09C80013440351F2CF2D197E0884BD5
S2140018C003EB8414D4E90623D4E90A010BF0CAFE1C
S2140018D006460F46D4E90823D4E90C010BF0C2FEF5
S2140018E08046894632463B46304639460CF072F80A
S2140018F004460D4642464B46404649460CF06AF8BA
S21400190002460B46204629460BF0AEFE41EC100B75
S2140019100CF08AFE5BEC10AB724C10EE102A5B46A5
S214001920404649460CF080F90CF02CFBC4F87801D0
S21400193052465B46304639460CF076F90CF022FBF0
S21400194080F00040C4F87C0192E7654D05EB8415F5
S214001950D5E90223304639460BF084FE06460F468C
S21400196095F938000BF0CCFF002200230CF0C2FAE9
S21400197028B3D5E90423304639460CF055F9D5E9A5
S2140019800A230BF071FE41EC1A0BB0EE4A0AF0EE99
S2140019906A0A0CF0D5FC534C51EC100B0CF0F2FA22
S2140019A0C4F87801B0EE4A0AF0EE6A0A0CF090FD30
S2140019B051EC100B0CF0E6FAC4F87C0158E7304600
S2140019C007F10041464B03EB8414D4E904230CF0E2
S2140019D02BF9D4E90A230BF047FE3FA3D3E90023F3
S2140019E00BF042FE41EC1A0BCFE70024013CDFF877
S2140019F0F080A50108EB0503D3E9022330463946FB
S214001A000BF030FE06460F4618F80530012B29D09D
S214001A10022B69D0334BD3F880000BF083FF9FED89
S214001A202C1B41EC100B0CF09BFD57EC106B2C4B59
S214001A30D3E9022310EE100A39460CF03DFA0028CE
S214001A4040F09180264D0124D5E9122330463946D0
S214001A500CF032FA002840F08780013440351F2C05
S214001A60F2D182E01E4B03EB8414D4E90689D4E954
S214001A7004230CF0D9F806460F461A4D42464B464C
S214001A80D4E90A010BF0EEFD32463B460BF0A2FF0E
S214001A9042464B460BF0E8FD0CF074FAC5F88001A0
S214001AA0D4E9088942464B46D4E90C010BF0DAFD2E
S214001AB032463B460BF08EFF42464B460BF0D4FDBB
S214001AC00CF060FAC5F88401A4E700BFAFF300800D
S214001AD00E684C35DA4DA140112D4454FB210940C7
S214001AE05095FF1FD8070020BF4B03EB8414D4E9A2
S214001AF0048994F938000BF003FF32463B460BF09E
S214001B0069FF42464B460CF08FF8D4E90A230BF0E7
S214001B10ABFD41EC1A0B41EC100B0CF011FCB34D75
S214001B2053EC102B404649460BF054FFD4E90623ED
S214001B300BF09AFD0CF026FAC5F88001B0EE4A0AC2
S214001B40F0EE6A0A0CF0C4FC53EC102B40464946F3
S214001B500BF040FFD4E908230BF086FD0CF012FAD8
S214001B60C5F8840156E70024013CA3019E4AD35CD5
S214001B70012B29D0022B6DD09C4BD3F880000BF0A4
S214001B80D1FE9FED951B41EC100B0CF0E9FC57ECD9
S214001B90106B954BD3E9022310EE100A39460CF071
S214001BA08BF9002840F0A6808F4D0124D5E912233A
S214001BB0304639460CF080F9002840F09C8001340D
S214001BC040351F2CF2D197E0874B03EB8414D4E901
S214001BD00623D4E90A010BF045FD06460F46D4E974
S214001BE00823D4E90C010BF03DFD804689463246B9
S214001BF03B46304639460BF0EDFE04460D4642465F
S214001C004B46404649460BF0E5FE02460B4620464C
S214001C1029460BF029FD41EC100B0CF005FD5BECA2
S214001C2010AB724C10EE102A5B46404649460BF04D
S214001C30FBFF0CF0A7F9C4F8880152465B46304615
S214001C4039460BF0F1FF0CF09DF980F00040C4F827
S214001C508C0191E7644D05EB8415D5E902233046E7
S214001C6039460BF0FFFC06460F4695F938000BF098
S214001C7047FE002200230CF03DF928B3D5E90423E3
S214001C80304639460BF0D0FFD5E90A230BF0ECFCC2
S214001C9041EC1A0BB0EE4A0AF0EE6A0A0CF050FB62
S214001CA0524C51EC100B0CF06DF9C4F88801B0EEF4
S214001CB04A0AF0EE6A0A0CF00BFC51EC100B0CF022
S214001CC061F9C4F88C0157E7304607F10041464BEE
S214001CD003EB8414D4E904230BF0A6FFD4E90A230B
S214001CE00BF0C2FC3EA3D3E900230BF0BDFC41EC95
S214001CF01A0BCFE70024013CDFF8EC80A50108EBC7
S214001D000503D3E90223304639460BF0ABFC064602
S214001D100F4618F80530012B29D0022B68D0334B1C
S214001D20D3F890000BF0FEFD9FED2B1B41EC100B43
S214001D300CF016FC57EC106B2B4BD3E9022310EE7D
S214001D40100A39460CF0B8F8002840F09080264D6E
S214001D500124D5E91223304639460CF0ADF80028A8
S214001D6040F08680013440351F2CF2D181E01E4BB6
S214001D7003EB8414D4E90689D4E904230BF054FF5A
S214001D8006460F46194D42464B46D4E90A010BF06B
S214001D9069FC32463B460BF01DFE42464B460BF0B6
S214001DA063FC0CF0EFF8C5F89001D4E908894246C8
S214001DB04B46D4E90C010BF055FC32463B460BF083
S214001DC009FE42464B460BF04FFC0CF0DBF8C5F81C
S214001DD09401A4E7AFF300800E684C35DA4DA140BD
S214001DE0112D4454FB2109405095FF1FD8070020B1
S214001DF0BF4B03EB8414D4E9048994F938000BF044
S214001E007FFD32463B460BF0E5FD42464B460BF067
S214001E100BFFD4E90A230BF027FC41EC1A0B41EC2C
S214001E20100B0CF08DFAB34D53EC102B4046494680
S214001E300BF0D0FDD4E906230BF016FC0CF0A2F84C
S214001E40C5F89001B0EE4A0AF0EE6A0A0CF040FBC4
S214001E5053EC102B404649460BF0BCFDD4E9082352
S214001E600BF002FC0CF08EF8C5F8940157E700243E
S214001E70013CA3019E4AD35C012B29D0022B6DD0D6
S214001E809C4BD3F890000BF04DFD9FED951B41EC5D
S214001E90100B0CF065FB57EC106B954BD3E9022347
S214001EA010EE100A39460CF007F8002840F0A6801D
S214001EB08F4D0124D5E91223304639460BF0FCFF3E
S214001EC0002840F09C80013440351F2CF2D197E06A
S214001ED0874B03EB8414D4E90623D4E90A010BF0FC
S214001EE0C1FB06460F46D4E90823D4E90C010BF0E3
S214001EF0B9FB8046894632463B46304639460BF0AB
S214001F0069FD04460D4642464B46404649460BF0A0
S214001F1061FD02460B46204629460BF0A5FB41EC28
S214001F20100B0CF081FB5BEC10AB724C10EE102A21
S214001F305B46404649460BF077FE0CF023F8C4F8A3
S214001F40980152465B46304639460BF06DFE0CF063
S214001F5019F880F00040C4F89C0191E7644D05EB49
S214001F608415D5E90223304639460BF07BFB06463E
S214001F700F4695F938000BF0C3FC002200230BF047
S214001F80B9FF28B3D5E90423304639460BF04CFE9A
S214001F90D5E90A230BF068FB41EC1A0BB0EE4A0AAF
S214001FA0F0EE6A0A0CF0CCF9524C51EC100B0BF028
S214001FB0E9FFC4F89801B0EE4A0AF0EE6A0A0CF09F
S214001FC087FA51EC100B0BF0DDFFC4F89C0157E7C5
S214001FD0304607F10041464B03EB8414D4E9042352
S214001FE00BF022FED4E90A230BF03EFB3EA3D3E916
S214001FF000230BF039FB41EC1A0BCFE70024013C21
S214002000DFF8EC80A50108EB0503D3E90223304690
S21400201039460BF027FB06460F4618F80530012B0D
S21400202029D0022B68D0334BD3F8A0000BF07AFCF3
S2140020309FED2B1B41EC100B0CF092FA57EC106B3B
S2140020402B4BD3E9022310EE100A39460BF034FF6F
S214002050002840F09080264D0124D5E91223304612
S21400206039460BF029FF002840F0868001344035C1
S2140020701F2CF2D181E01E4B03EB8414D4E90689B1
S214002080D4E904230BF0D0FD06460F46194D424610
S2140020904B46D4E90A010BF0E5FA32463B460BF014
S2140020A099FC42464B460BF0DFFA0BF06BFFC5F887
S2140020B0A001D4E9088942464B46D4E90C010BF04E
S2140020C0D1FA32463B460BF085FC42464B460BF0B7
S2140020D0CBFA0BF057FFC5F8A401A4E7AFF30080D6
S2140020E00E684C35DA4DA140112D4454FB210940B1
S2140020F05095FF1FD8070020BF4B03EB8414D4E98C
S214002100048994F938000BF0FBFB32463B460BF093
S21400211061FC42464B460BF087FDD4E90A230BF0E0
S214002120A3FA41EC1A0B41EC100B0CF009F9B34D75
S21400213053EC102B404649460BF04CFCD4E90623E2
S2140021400BF092FA0BF01EFFC5F8A001B0EE4A0A9B
S214002150F0EE6A0A0CF0BCF953EC102B40464946E8
S2140021600BF038FCD4E908230BF07EFA0BF00AFFDC
S214002170C5F8A40157E70024013CA3019E4AD35C9E
S214002180012B29D0022B6DD09C4BD3F8A0000BF06E
S214002190C9FB9FED951B41EC100B0CF0E1F957ECD9
S2140021A0106B954BD3E9022310EE100A39460BF05C
S2140021B083FE002840F0A6808F4D0124D5E9122327
S2140021C0304639460BF078FE002840F09C800134FB
S2140021D040351F2CF2D197E0874B03EB8414D4E9EB
S2140021E00623D4E90A010BF03DFA06460F46D4E969
S2140021F00823D4E90C010BF035FA804689463246AE
S2140022003B46304639460BF0E5FB04460D46424653
S2140022104B46404649460BF0DDFB02460B46204641
S21400222029460BF021FA41EC100B0CF0FDF95BECA3
S21400223010AB724C10EE102A5B46404649460BF037
S214002240F3FC0BF09FFEC4F8A80152465B463046EE
S21400225039460BF0E9FC0BF095FE80F00040C4F820
S214002260AC0191E7644D05EB8415D5E902233046B1
S21400227039460BF0F7F906460F4695F938000BF08D
S2140022803FFB002200230BF035FE28B3D5E90423DC
S214002290304639460BF0C8FCD5E90A230BF0E4F9C2
S2140022A041EC1A0BB0EE4A0AF0EE6A0A0CF048F857
S2140022B0524C51EC100B0BF065FEC4F8A801B0EEC2
S2140022C04A0AF0EE6A0A0CF003F951EC100B0BF018
S2140022D059FEC4F8AC0157E7304607F10041464BBB
S2140022E003EB8414D4E904230BF09EFCD4E90A2300
S2140022F00BF0BAF93EA3D3E900230BF0B5F941EC95
S2140023001A0BCFE70024013CDFF8EC80A50108EBB0
S2140023100503D3E90223304639460BF0A3F90646F7
S2140023200F4618F80530012B29D0022B68D0334B06
S214002330D3F8B0000BF0F6FA9FED2B1B41EC100B18
S2140023400CF00EF957EC106B2B4BD3E9022310EE72
S214002350100A39460BF0B0FD002840F09080264D5C
S2140023600124D5E91223304639460BF0A5FD002896
S21400237040F08680013440351F2CF2D181E01E4BA0
S21400238003EB8414D4E90689D4E904230BF04CFC4F
S21400239006460F46194D42464B46D4E90A010BF055
S2140023A061F932463B460BF015FB42464B460BF0B6
S2140023B05BF90BF0E7FDC5F8B001D4E908894246A1
S2140023C04B46D4E90C010BF04DF932463B460BF078
S2140023D001FB42464B460BF047F90BF0D3FDC5F820
S2140023E0B401A4E7AFF300800E684C35DA4DA14087
S2140023F0112D4454FB2109405095FF1FD80700209B
S214002400BF4B03EB8414D4E9048994F938000BF02D
S21400241077FA32463B460BF0DDFA42464B460BF067
S21400242003FCD4E90A230BF01FF941EC1A0B41EC2C
S214002430100B0BF085FFB34D53EC102B404649466E
S2140024400BF0C8FAD4E906230BF00EF90BF09AFD50
S214002450C5F8B001B0EE4A0AF0EE6A0A0CF038F899
S21400246053EC102B404649460BF0B4FAD4E9082347
S2140024700BF0FAF80BF086FDC5F8B40157E7002418
S214002480013CA3019E4AD35C012B29D0022B6DD0C0
S2140024909C4BD3F8B0000BF045FA9FED951B41EC32
S2140024A0100B0CF05DF857EC106B954BD3E902233C
S2140024B010EE100A39460BF0FFFC002840F0A6800C
S2140024C08F4D0124D5E91223304639460BF0F4FC33
S2140024D0002840F09C80013440351F2CF2D197E054
S2140024E0874B03EB8414D4E90623D4E90A010BF0E6
S2140024F0B9F806460F46D4E90823D4E90C010BF0D8
S214002500B1F88046894632463B46304639460BF09F
S21400251061FA04460D4642464B46404649460BF095
S21400252059FA02460B46204629460BF09DF841EC28
S214002530100B0CF079F85BEC10AB724C10EE102A16
S2140025405B46404649460BF06FFB0BF01BFDC4F89C
S214002550B80152465B46304639460BF065FB0BF039
S21400256011FD80F00040C4F8BC0191E7644D05EB16
S2140025708415D5E90223304639460BF073F8064633
S2140025800F4695F938000BF0BBF9002200230BF03C
S214002590B1FC28B3D5E90423304639460BF044FB9A
S2140025A0D5E90A230BF060F841EC1A0BB0EE4A0AA4
S2140025B0F0EE6A0A0BF0C4FE524C51EC100B0BF016
S2140025C0E1FCC4F8B801B0EE4A0AF0EE6A0A0BF075
S2140025D07FFF51EC100B0BF0D5FCC4F8BC0157E79D
S2140025E0304607F10041464B03EB8414D4E904233C
S2140025F00BF01AFBD4E90A230BF036F83EA3D3E916
S21400260000230BF031F841EC1A0BCFE70024013C15
S214002610DFF8EC80A50108EB0503D3E9022330467A
S21400262039460BF01FF806460F4618F80530012B02
S21400263029D0022B68D0334BD3F840010BF072F947
S2140026409FED2B1B41EC100B0BF08AFF57EC106B29
S2140026502B4BD3E9022310EE100A39460BF02CFC64
S214002660002840F09080264D0124D5E912233046FC
S21400267039460BF021FC002840F0868001344035B6
S2140026801F2CF2D181E01E4B03EB8414D4E906899B
S214002690D4E904230BF0C8FA06460F46194D424605
S2140026A04B46D4E90A010AF0DDFF32463B460BF002
S2140026B091F942464B460AF0D7FF0BF063FCC5F88B
S2140026C0C001D4E9088942464B46D4E90C010AF019
S2140026D0C9FF32463B460BF07DF942464B460AF0B0
S2140026E0C3FF0BF04FFCC5F8C401A4E7AFF30080AE
S2140026F00E684C35DA4DA140112D4454FB2109409B
S2140027005095FF1FD8070020D74B03EB8414D4E95D
S214002710048994F938000BF0F3F832463B460BF088
S21400272059F942464B460BF07FFAD4E90A230AF0E1
S2140027309BFF41EC1A0B41EC100B0BF001FECB4D4E
S21400274053EC102B404649460BF044F9D4E90623D7
S2140027500AF08AFF0BF016FCC5F8C001B0EE4A0A74
S214002760F0EE6A0A0BF0B4FE53EC102B40464946D6
S2140027700BF030F9D4E908230AF076FF0BF002FCE0
S214002780C5F8C40157E70024013CA301B64AD35C50
S214002790012B00F0C880022B00F00B81B34CD4F85C
S2140027A0E45194ED4FAA07EE905A37EE8AAAB0EE9F
S2140027B04A0A0BF009FEF0EE40AAB0EE4A0A0BF009
S2140027C043FED4ED737A67EEEA7A94ED727A20EEE1
S2140027D0070A37EE800AD4ED787A20EE270A84EDD1
S2140027E0740AC4F8155310EE103AC4F819330025CD
S2140027F08DF81C50082608968DF824508DF8255024
S2140028008DF826508DF82750562307AA0121284612
S21400281004F086FF04F215330093562307AA01211D
S214002820284605F025F8D4F84031C4F81D33D4F80E
S2140028305431C4F821338DF81C5008968DF8245076
S2140028408DF825508DF826508DF82750552307AA69
S2140028502946284604F064FF04F21D3300935523EE
S21400286007AA2946284605F003F8D4ED787A94EDB1
S2140028704F7A67EE877A9FED7E7A67EE877A9FEDCE
S2140028807D7A77EE877A77EECB7A9FED7B7A67EE66
S214002890877AB6EE007A77EE877A9FED787AF4EE4E
S2140028A0C77AF1EE10FA40F3EF80234683ED757A8F
S2140028B06E4CD4ED757A9FED727A67EE877AFCEEF1
S2140028C0E77A012301930020009017EE903A9BB21E
S2140028D00246014607F08AFBD4F840010BF022F8C6
S2140028E09FED5D1B41EC100B0BF03AFE57EC106BA6
S2140028F05D4BD3E9022310EE100A39460BF0DCFAE2
S214002900002840F0D180584D0124D5E912233046E6
S21400291039460BF0D1FA002840F0C7800134403524
S2140029201F2CF2D1C2E0504B03EB8414D4E90623EB
S214002930D4E90A010AF096FE06460F46D4E90823B3
S214002940D4E90C010AF08EFE8046894632463B46A4
S214002950304639460BF03EF804460D4642464B4696
S214002960404649460BF036F802460B4620462946B6
S2140029700AF07AFE41EC100B0BF056FE5BEC10AB47
S2140029803A4C10EE102A5B46404649460BF04CF98E
S2140029900BF0F8FAC4F8C80152465B463046394692
S2140029A00BF042F90BF0EEFA80F00040C4F8CC01D0
S2140029B0F4E62D4D05EB8415D5E90223304639465D
S2140029C00AF050FE06460F4695F938000AF098FFC2
S2140029D0002200230BF08EFA28B3D5E904233046F4
S2140029E039460BF021F9D5E90A230AF03DFE41EC01
S2140029F01A0BB0EE4A0AF0EE6A0A0BF0A1FC1B4C6A
S214002A0051EC100B0BF0BEFAC4F8C801B0EE4A0A3F
S214002A10F0EE6A0A0BF05CFD51EC100B0BF0B2FA0C
S214002A20C4F8CC01BAE6304607F100410E4B03EB82
S214002A308414D4E904230BF0F7F8D4E90A230AF047
S214002A4013FE07A3D3E900230AF00EFE41EC1A0B8F
S214002A50CFE700BFAFF300800E684C35DA4DA140DB
S214002A60112D4454FB2109405095FF1FD807002024
S214002A700000C84200000000A5C7A5395C8F423F91
S214002A80000000478FC2753E1FED027AF4EEC77A4B
S214002A90F1EE10FA03D4DC4BC3ED757A08E7DB4A97
S214002AA0D94BC3F8D42103E70024013CA301D84A3C
S214002AB0D35C012B00F01981022B00F05C81D24D13
S214002AC0D5ED777A67EEE88AD5ED767A28EE278A0E
S214002AD078EE887A17EE900A0AF024FF06460F462C
S214002AE0CC4CD4E902ABC2A3D3E9002350465946E6
S214002AF00AF070FF8046894695ED508ABEA3D3E95A
S214002B000023304639460AF065FF42464B460AF037
S214002B10ABFD0BF037FADFEDC07A07EE100A67EE72
S214002B20277A77EE887AC4ED097A84ED048A95EDE3
S214002B30558A84ED058AD5F8E481C4F81880D5F85E
S214002B40D031E361B5F85632A4F8B830C4ED0A9A2D
S214002B5084ED0B9AAAA3D3E90023304639460AF03F
S214002B6039FF52465B460AF07FFDC4E90201AB4BD3
S214002B701B7B002B00F0B080D5ED567A68EE277AE6
S214002B8095ED587A77EE877AC4ED117AD5ED577AB7
S214002B9028EE278AD5ED597A38EE278A84ED128AF0
S214002BA0C4F84C80D5F8E0112165D5ED197A95ED7D
S214002BB05A7A27EE877AD5ED5C6A37EE267A84ED68
S214002BC0157A95ED5B7A67EE877A95ED5D7A77EE06
S214002BD0877AC4ED167AA96EE165D5ED1D7A95ED76
S214002BE05E7A27EE877AD5ED606A37EE267A84ED30
S214002BF0187A95ED5F7A67EE877A95ED617A77EECB
S214002C00877AC4ED197AA96FA166D5ED217A95ED7C
S214002C10627A27EE877AD5ED646A37EE267A84EDF7
S214002C201B7A95ED637A67EE877A95ED657A77EE8F
S214002C30877AC4ED1C7AD5F888106167D5ED257AB9
S214002C4095ED667A27EE877AD5ED686A37EE267AAE
S214002C5084ED1E7A95ED677A67EE877A95ED697A48
S214002C6077EE877AC4ED1F7AD5F89810C4F88010EE
S214002C70D5ED297A95ED6A7A27EE877AD5ED6C6AD6
S214002C8037EE267A84ED217A95ED6B7A67EE877AB1
S214002C9095ED6D7A77EE877AC4ED227AD5F8A8108E
S214002CA0C4F88C10D5ED2D7A95ED6E7A27EE877ADE
S214002CB0D5ED706A37EE267A84ED247A95ED6F7A34
S214002CC067EE877A95ED717A77EE877AC4ED257A86
S214002CD0D5F8B830C4F89830504A5368013353607A
S214002CE00BB0BDEC088BBDE8F08F494B03EB8414AA
S214002CF0D4E90623D4E90A010AF0B4FC06460F46D6
S214002D00D4E90823D4E90C010AF0ACFC80468946D5
S214002D1032463B46304639460AF05CFE04460D46CF
S214002D2042464B46404649460AF054FE02460B468B
S214002D30204629460AF098FC41EC100B0BF074FC78
S214002D405BEC10AB304C10EE102A5B464046494612
S214002D500AF06AFF0BF016F9C4F8D80152465B4633
S214002D60304639460AF060FF0BF00CF980F0004060
S214002D70C4F8DC01A3E6264D05EB8415D5E902234D
S214002D80304639460AF06EFC06460F4695F938007E
S214002D900AF0B6FD002200230BF0ACF800283FD066
S214002DA0D5E90423304639460AF03EFFD5E90A2322
S214002DB00AF05AFC41EC1A0BB0EE4A0AF0EE6A0A28
S214002DC00BF0BEFA104C51EC100B0BF0DBF8C4F80D
S214002DD0D801B0EE4A0AF0EE6A0A0BF079FB51EC25
S214002DE0100B0BF0CFF8C4F8DC0168E6AFF30080F8
S214002DF050ABAC844E81D83F0F5AD14800C46240D5
S214002E00AFBC3460C3E4E43FD80700208FC2753EF1
S214002E105095FF1F600500200AD7233C1C000020A9
S214002E20304607F100410C4B03EB8414D4E904232D
S214002E300AF0FAFED4E90A230AF016FC04A3D3E942
S214002E4000230AF011FC41EC1A0BB5E7AFF3008043
S214002E50112D4454FB2109405095FF1FF8B5124E22
S214002E60124C58252A46214630460DF0EBFA06F25B
S214002E70B5272A46314638460DF0E4FA94F87630FF
S214002E80B3FA83F35B0984F8763084F8D73073237B
S214002E9084F877302A46394604F178000DF0D2FAE5
S214002EA0652384F8D030F8BDE0070020A405002094
S214002EB02DE9F04F93B0DFF844A404AC55460FCD8F
S214002EC00FC40FCD0FC40FCD0FC495E8030084E8E0
S214002ED00300DFF82C94B9F86260B60006F180466D
S214002EE006F5CA26336843F080433360DFF814845F
S214002EF005220421404609F070FC336843F0804305
S214002F00336005221146404609F067FCB9F8683080
S214002F109B0003F1804303F5CA231A6842F08042FF
S214002F201A6004AD2A46F249002004F091FAB9F876
S214002F305E40A40004F1804404F5CA24236843F0EC
S214002F4080432360EB4F02220621384609F07CFDC1
S214002F50236843F08043236002220721384609F0A5
S214002F6073FDB9F89630DFF8A0B34FF086424BF801
S214002F7023209B0003F1804303F5CA231A6842F01E
S214002F8080421A600AF1380393E8070085E80700D4
S214002F902A46D949012008F04BFE00248DF810403F
S214002FA0082705978DF818408DF819408DF81A40B7
S214002FB08DF81B400F232A461021204604F072FC91
S214002FC00121204604F00CF9234610222146204613
S214002FD004F0B4F98DF8104005978DF818408DF878
S214002FE019408DF81A408DF81B4010232A461121EF
S214002FF0204604F057FC0121204604F0F1F8234651
S21400300011222146204604F099F98DF810400597C4
S2140030108DF818408DF819408DF81A408DF81B4031
S21400302041232A460C21204604F03CFC0121204680
S21400303004F0D6F823460C222146204604F07EF9FA
S2140030408DF8104005978DF818408DF819408DF8CA
S2140030501A408DF81B4042232A460D21204604F0D4
S21400306021FC0121204604F0BBF823460D22214610
S214003070204604F063F98DF8104005978DF8184047
S2140030808DF819408DF81A408DF81B404B232A46C0
S2140030900221204604F006FC0121204604F0A0F898
S2140030A0234602222146204604F048F98DF81040B7
S2140030B005978DF818408DF819408DF81A408DF850
S2140030C01B404C232A460321204604F0EBFB01213B
S2140030D0204604F085F8234603222146204604F0C5
S2140030E02DF98DF8104005978DF818408DF8194089
S2140030F08DF81A408DF81B4069232A460E2120467B
S21400310004F0D0FB0121204604F06AF823460E2284
S2140031102146204604F012F98DF8104005978DF8E8
S21400312018408DF819408DF81A408DF81B406A2318
S2140031302A460F21204604F0B5FB0121204604F064
S2140031404FF823460F222146204604F0F7F88DF864
S214003150104005978DF818408DF819408DF81A40E4
S2140031608DF81B4019232A460421204604F09AFBBA
S2140031700121204604F034F8234604222146204646
S21400318004F0DCF88DF8104005978DF818408DF89F
S21400319019408DF81A408DF81B401A232A4605213F
S2140031A0204604F07FFB0121204604F019F8234650
S2140031B005222146204604F0C1F88DF810400597F8
S2140031C08DF818408DF819408DF81A408DF81B4080
S2140031D023232A460621204604F064FB01212046CC
S2140031E003F0FEFF234606222146204604F0A6F8FA
S2140031F08DF8104005978DF818408DF819408DF819
S2140032001A408DF81B4024232A460721204604F046
S21400321049FB0121204603F0E3FF2346072221460F
S214003220204604F08BF88DF8104005978DF818406E
S2140032308DF819408DF81A408DF81B402D232A462C
S2140032403946204604F02EFB0121204603F0C8FF35
S21400325023463A462146204604F070F88DF8104082
S21400326005978DF818408DF819408DF81A408DF89E
S2140032701B402E232A460921204604F013FB012179
S214003280204603F0ADFF234609222146204604F0DF
S21400329055F88DF8104005978DF818408DF81940B0
S2140032A08DF81A408DF81B4037232A460A212046FF
S2140032B004F0F8FA0121204603F092FF23460A2282
S2140032C02146204604F03AF88DF8104005978DF810
S2140032D018408DF819408DF81A408DF81B40382399
S2140032E02A460B21204604F0DDFA01210EE000BF3D
S2140032F0100B002000B004402C0000204C050100FC
S214003300C006010000D0044000500640204603F0EE
S21400331067FF23460B222146204604F00FF8B9F833
S2140033205C309B0003F1804303F5CA231A6842F021
S21400333080421A6002223946CA4809F085FBB9F86D
S2140033407E304FF08C424BF823209B0003F18043E5
S21400335003F5CA231A6842F080421A60C24AC3497B
S214003360032006F0BBF8C249032006F0C1FE224641
S2140033700121C04806F005FA2B460AF1440A9AE8ED
S214003380070003C31A80120CAA72019402948DF8E7
S21400339000408DF80140B9F882108B0003F180439D
S2140033A003F5CA231A6822F080421A604FF08C4256
S2140033B04BF821201A6842F080421A60204600F03E
S2140033C03FFC2946204600F00BFA2146204600F036
S2140033D015FC01A9204600F044FB6946204600F093
S2140033E091FB204600F09AFC0322A34B1A7022465B
S2140033F0A249204604F01CFE336843F08043336045
S214003400AC60EC606C61CDF810800E2305934FF035
S214003410010A8DF81BA08DF81EA00BF51A2B0BF5D4
S214003420807BCDF820B02946504609F0A9F9B9F8B6
S21400343060904FEA890909F1804909F5CA29D9F847
S214003440003043F08043C9F80030AC60EC606C613B
S2140034508B4B049305978DF81BA08DF81EA003F5E3
S2140034603323C03308938DF824A02946504609F02C
S21400347087F9D9F8003043F08043C9F80030AC60D3
S214003480EC606C617E4B0493092305938DF81BA0BA
S2140034908DF81EA07B4B08938DF824A02946504635
S2140034A009F06EF9D9F8003043F08043C9F80030CF
S2140034B0AC60EC606C61724B04934FF00A09CDF877
S2140034C014908DF81BA08DF81EA003F53323C0338F
S2140034D008938DF824A02946504609F051F9336820
S2140034E043F080433360AC60EC606C61CDF81080D4
S2140034F0062305938DF81BA08DF81EA0CDF820B0EE
S2140035002946504609F03CF9336843F0804333605F
S214003510AC60EC606C61CDF81080072305938DF8E5
S2140035201BA08DF81EA0CDF820B02946504609F005
S21400353027F9336843F080433360AC60EC606C611D
S214003540CDF8108005978DF81BA08DF81EA0CDF83D
S21400355020B02946504609F013F9336843F08043FB
S2140035603360AC60EC606C61CDF810800923059385
S2140035708DF81BA08DF81EA0CDF820B02946504629
S21400358009F0FEF8336843F080433360AC60EC60CB
S2140035906C61CDF81080CDF814908DF81BA08DF8D6
S2140035A01EA0CDF820B02946504609F0E9F8336849
S2140035B043F080433360AC60EC606C61CDF8108003
S2140035C00B2305938DF81BA08DF81EA0CDF820B018
S2140035D02946504609F0D4F8336843F080433360F8
S2140035E0AC60EC606C61CDF810800C2305935446FB
S2140035F08DF81BA08DF81EA0D846CDF820B004A9E3
S214003600504609F0BDF8336843F080433360002528
S214003610069507950995DFF878A0CDF810A04FF02D
S2140036200D09CDF814908DF81B408DF81E40CDF88E
S21400363020B004A9204609F0A3F804AE124F0FCF1D
S2140036400FC63B6833800195029503954FF6FF73CE
S214003650ADF808300D4FB7F85A60B60006F1804650
S21400366018E000BF00A00440800D0020F094FF1F6B
S2140036700495FF1F00600240240C00205D6A0000D5
S21400368000C00440C0F00F409C050100C0060100C9
S21400369000D0044006F5CA26336843F08043336002
S2140036A0DFF818B106224946584609F0CDF93368C6
S2140036B043F08043336006220C21584609F0C4F9D3
S2140036C0B7F87C30354E4FF08C4946F823909B0077
S2140036D003F1804303F5CA231A6842F080421A6059
S2140036E02F4A04A9022005F0F9FE01A9022007F0DE
S2140036F0D1F8B7F862309B0003F1804303F5CA2384
S2140037001A6842F080421A60069507950995CDF82A
S21400371010A00F2305938DF81B408DF81E40CDF8A2
S214003720208004A9204609F02BF8B7F85C309B00EF
S21400373003F1804303F5CA231A6842F080421A60F8
S21400374002220C21174809F07FF9B7F8783046F8BE
S21400375023909B0003F1804303F5CA231A6842F0C6
S21400376080421A60104A1149284605F0B7FE1049F3
S214003770284606F0BDFC2A4621460E4806F001F80B
S2140037800D4B83F81C4183F8154183F8164183F8E6
S214003790174183F8184113B0BDE8F08F005006407B
S2140037A06000002000A00440200D0020A094FF1F11
S2140037B0B494FF1F00800340600500200090044082
S2140037C0704700BF002303700C2242708370C370E2
S2140037D0037143718371C3710372437283727047BE
S2140037E070B584B006460D465D4B53F82040412325
S2140037F08DF80C3042238DF80D3004A9002341F8D3
S214003800083D04AB034413F8040C02F007FA2B78C7
S214003810029ADA400292226C22F060025B0103F008
S2140038206003134323646B78002B08BF0123626C8C
S21400383022F0FF0213436364226C22F00C02AB7882
S2140038409B0003F00C0313432364226C22F0030254
S214003850EB7803F0030313432364D4F8902022F09C
S21400386040022B799B0103F040031343C4F89030C9
S2140038706B79302200924FF440520192394A926995
S21400388004A901EB860151F8101C22EA0102002E61
S21400389043D0012E4FD0334B9A61AA790121009173
S2140038A04FF4807101919B6904A901EB860151F8E0
S2140038B0101C23EA0103002E39D0012E45D0294AD8
S2140038C09361D4F8903023F00403EA79002A14BFF9
S2140038D0042200221343C4F89030D4F8902022F03B
S2140038E003022B7A03F003031343C4F89030D4F892
S2140038F0943023F008036A7A002A14BF08220022B4
S2140039001343C4F8943036B9AB7A1BBB154A5368D8
S21400391023F40023536004B070BD1B0103F0300392
S214003920134310498B61AA798B6923F0010302F0D7
S21400393001021343C3E71B0303F44053134309492F
S2140039408B61AA798B6923F48073120202F4807269
S2140039501343B4E7034A536843F400235360DAE79B
S214003960B80501000080044030B484B0374B53F8EB
S21400397020301A6CC2F341120A705A6C4A701A6CE4
S214003980C2F38102012A56D0022A0CBF022200226C
S2140039908A701A6C02F00302CA70D3F89020C2F341
S2140039A080120A7100220292012200924FF4807265
S2140039B0019208220392264A926904AC04EB800422
S2140039C054F8105C2A4054F8084CE240012A14BF10
S2140039D0002201228A71302200924FF44052019256
S2140039E0042202920C220392194A926904AC04EB58
S2140039F0800454F8105C2A4054F8084CE240012A2F
S214003A001BD0022A0CBF022200224A71D3F8902053
S214003A10C2F38002CA71D3F8902002F003020A7241
S214003A20D3F89430C3F3C0034B7240B100238B72BB
S214003A3004B030BC70470122AAE70122E5E7044B38
S214003A405B68C3F3C0438B72F2E700BFB8050100A2
S214003A500080044000230370437083708380C3801B
S214003A607047174B53F82030D3F8902022F02002EE
S214003A700878002814BF202000200243C3F89020B6
S214003A80D3F8902022F010024878002814BF1020A7
S214003A9000200243C3F89020D3F8902022F00802BA
S214003AA08878002814BF082000200243C3F890201E
S214003AB08A88C3F88820CA88C3F88C20704700BF5D
S214003AC0B80501000C4B53F82030D3F89020C2F311
S214003AD040120A70D3F89020C2F300124A70D3F84E
S214003AE09020C2F3C0028A70D3F888208A80D3F868
S214003AF08C30CB80704700BFB805010000230370F0
S214003B00437070470C4B53F82020D2F8943023F0C3
S214003B1004030878002814BF042000200343C2F8DA
S214003B209430D2F8940020F003004B7803F003039F
S214003B300343C2F894307047B8050100064B53F8AB
S214003B402020D2F89430C3F380030B70D2F8943060
S214003B5003F003034B707047B805010000230370A1
S214003B601F234380704730B4124B53F8200053880D
S214003B701478A3F5706292B2052A0BD80E4A5568DF
S214003B8025F4E025556055681B0403F4E0232B4319
S214003B905360152350F8212003F01F0322F05F0224
S214003BA01343002C14BF40220022134340F8213058
S214003BB030BC7047B8050100008004400D4B53F838
S214003BC0200050F82130C3F38013137050F82130D2
S214003BD003F01F0308494968152B01D0538070472E
S214003BE011F4002FFAD0044B5B68C3F3024303F5CD
S214003BF07063F3E7B80501000080044082B00E232E
S214003C0000934FF4606301930C4B9B6902AA02EB8E
S214003C10800252F8082C23EA020328B1012808D0B3
S214003C20064A936102B07047490001F00E010B434B
S214003C30F6E7490201F460610B43F1E700800440B7
S214003C4030B583B00446224B53F8202000231F21B2
S214003C5042F823100133102BFAD1002111640C23F3
S214003C605364C2F88810C2F88C10C2F89010C2F8DC
S214003C709410C2F8A0100423C2F8B030302300938A
S214003C804FF440530193134B9A6902A800EB84004B
S214003C9050F8085C22EA05029A61012200924FF46D
S214003CA0807201929A6950F8080C22EA00029A6122
S214003CB02046FFF7A3FF44B9064B5A6822F40022B9
S214003CC05A605A6822F4E0225A6003B030BD00BF42
S214003CD0B805010000800440044B53F82020D2F8B9
S214003CE0903013F0800FFAD1704700BFB80501007E
S214003CF0034B53F8203053F82100C0F3C010704730
S214003D00B8050100044B53F82030123153F8213027
S214003D10C3F30B0313807047B80501002DE9F04785
S214003D2082B04F4B53F82040D4F89430C3F3800849
S214003D30D4F8947007F00307D4F89060656CEDB281
S214003D40D4F8943043F00303C4F89430D4F8943095
S214003D5043F00403C4F89430D4F8903023F04003C2
S214003D60C4F89030636C23F0FF0343F00C036364E5
S214003D700023C4F8B430C4F8B830C4F8BC30C4F873
S214003D80C030C4F8C430C4F8C830C4F8CC304122BF
S214003D908DF8042042228DF8052002A941F8083D3E
S214003DA0D4F840904FEA591A02AB184410F8040CA5
S214003DB001F034FF009B0AF0030A23FA0AFA294AA4
S214003DC0924512D9284A934208D9284A934245D99F
S214003DD0274A934294BF0323002300E00123226C6A
S214003DE022F0600242EA43132364D4F8943043F08E
S214003DF08003C4F89430D4F8943013F08003FAD1DA
S214003E00226C22F0600209F0600949EA020222648C
S214003E10D4F8942022F00402B8F1000F18BF04234F
S214003E201343C4F89430D4F8943023F003031F43AC
S214003E30C4F89470D4F8903023F0400306F040069F
S214003E401E43C4F89060002D08BF0125636C23F064
S214003E50FF031D43656402B0BDE8F0870223BEE79A
S214003E60B805010040787D0181F0FA0203E1F5050E
S214003E7007C2EB0B04230380002343807047F0B493
S214003E80114B53F820200B88D2F8C400D2F8C0702B
S214003E90D2F8BC60D2F8B850D2F8B440C2F8B0300D
S214003EA03844034433442B44234413F4784F14BF5C
S214003EB04FF0FF3300239BB2C2F8AC308B78C2F8C9
S214003EC0A030F0BC704700BFB8050100064B53F8A1
S214003ED02020D2F8B030C3F309030B80D2F8A0300C
S214003EE0DBB24B80704700BFB8050100024B184498
S214003EF090F90800704700BFB8050100074B53F85B
S214003F002020012905D0D2F8903013F4702FFAD172
S214003F107047136C43F480731364F4E7B80501002C
S214003F20044B53F82020D2F8903043F07063C2F868
S214003F3090307047B8050100034B53F82030D3F893
S214003F409000C0F303607047B805010030B490EDF0
S214003F50007A0446012300259FED116A03E0013331
S214003F601034072B13D0D4ED047AB4EEE77AF1EED2
S214003F7010FAF4D577EEC77AF8EEC66AF4EEE67A6B
S214003F80F1EE10FA44BFBDEEE76A1D46E7E700EB28
S214003F90051003680B60C368136030BC704700BF31
S214003FA080969800074B5B69DBB2042B06D0802B0B
S214003FB006D0012B0CBF012004207047022070475A
S214003FC00320704700E00740044BD3F8003113F09D
S214003FD0807F1ABF024B18680020704700400640DA
S214003FE00C0D002010B584B00B4600293BD0444A87
S214003FF0D2F8002112F0007F7DD1414AD2F800119C
S21400400021F40001C2F800114FF08061C2F80011DF
S21400401000213C4A1160002870D05A7A120202F43D
S214004020E062197A01F007010A433548C0F8042116
S214004030DA79120102F030029979C90001F008011C
S2140040400A435979890001F004010A43C0F808219F
S2140040501A79012A29D0E2B1022A32D01A68294BED
S2140040601A60294C3BE000238DF804308DF80C30A4
S21400407001228DF808208DF809208DF805208DF88E
S214004080063002238DF8073004AB204A43F8102D83
S214004090ADE71A7B002A14BF4FF40002002242F05C
S2140040A001021749C1F80021D8E71A7B002A14BF7D
S2140040B04FF40002002242F001121149C1F800211B
S2140040C0CCE71A7B002A14BF4FF403024FF44032A9
S2140040D042F001020A49C1F80021BFE7013CFFF7A0
S2140040E073FF18B9002CF9D1032005E0002C14BF8B
S2140040F00020032000E0022004B010BD0020FBE7F3
S214004100004006400C0D002088E7300000127A00C0
S214004110084BD3F8003213F0807F09D0054BD3F854
S214004120083203F00103002B034808BF0020704745
S214004130002070470040064000127A0010B582B09A
S2140041400B46002938D02D4AD2F8002212F0007F04
S2140041504FD12A4AD2F8001221F40001C2F8001208
S2140041600021C2F80012002846D09A78120202F403
S214004170E062597801F007010A432049C1F8042299
S2140041801A7802F00102C1F8082259799A791B7947
S214004190002B14BF03230123002914BF0421002190
S2140041A00B43002A14BF4FF4000200221343134AA5
S2140041B0C2F80032642410E000238DF80430012297
S2140041C08DF805208DF806308DF801208DF8022038
S2140041D002AB03F8082DB6E7013CFFF799FF18B9C4
S2140041E0002CF9D1032005E0002C14BF002003208A
S2140041F000E0022002B010BD0020FBE700400640B1
S214004200054BD3F8003313F0807F1DBF024BD3F865
S214004210083302480020704700400640006CDC026D
S21400422010B582B00B46002932D0294AD2F80023B6
S21400423012F0007F47D1264AD2F8001321F400017D
S214004240C2F800134FF08061C2F8001300283DD07A
S2140042509A78120202F4E062597801F007010A43E4
S2140042601B49C1F804231A7802F00302C1F8082398
S2140042709A795B79002B14BF01230923002A14BF07
S2140042804FF4000200221343C1F8003364240EE00A
S21400429001238DF8053000228DF806208DF80130B8
S2140042A08DF8023002AB03F8082DBEE7013CFFF79D
S2140042B0A7FF18B9002CF9D1032005E0002C14BF85
S2140042C00020032000E0022002B010BD0020FBE723
S2140042D00040064008B50F4BD3F8003613F0807F39
S2140042E002D10023184608BDFFF76EFE03460028DD
S2140042F0F8D00849D1F80826C2F302220132B0FBF2
S214004300F2F3D1F80826C2F30442103203FB02F39C
S2140043105B08E7E70040064010B584B00C4699B14C
S2140043203D4BD3F8003613F0007F72D13A4BD3F8EA
S214004330002622F40002C3F800264FF08062C3F87D
S2140043400026A0B9002065E000238DF804308DF823
S2140043500B3001228DF808208DF809208DF80530E5
S21400436007228DF806208DF8073001ACD8E7FFF756
S2140043702BFE63791B0203F4E063227902F0070246
S21400438013432549C1F8043663781B0203F4E0633F
S214004390A278120402F4F8121343C1F80836237800
S2140043A0012B16D04BB1022B1FD04FF47A74FFF7B7
S2140043B091FF48BB34B3013CF9E7E379002B14BF07
S2140043C04FF40003002343F00103134AC2F80036FB
S2140043D0EBE7E379002B14BF4FF40003002343F010
S2140043E001130D4AC2F80036DFE7E379002B14BF4D
S2140043F04FF403034FF4403343F00103064AC2F878
S2140044000036D2E7032005E0002C14BF002003206E
S21400441000E0022004B010BD004006402DE9F04147
S21400442080460D468C7801344E7806FB04460F789D
S21400443007FB0447CB78013B052B1CD8DFE803F0CD
S2140044400312151B1B18FFF7BFFD0009B8F1020F7A
S2140044504AD0B8F1030F7CD0B8F1010F0DD0002080
S214004460BDE8F081FFF754FEEFE7FFF7C9FEECE783
S214004470FFF730FFE9E70020E7E7EA7802EB4201C2
S2140044805D4B53F821301B0904FB03F4A04200F2F5
S21400449098800B46584901EB83035B681B0906FBB3
S2140044A003F6B04200F2908002EB420301EB830376
S2140044B09B681B0907FB03F7B84200F28880AB78BD
S2140044C01B0403F47023120602F0706213432A786A
S2140044D002F00F0213436A781201D2B21343474A1E
S2140044E053610020BDE8F081EA7802EB4201424BBE
S2140044F003EB81035B6D1B0904FB03F4A04269D840
S2140045000B463D4901EB83039B6D1B0906FB03F637
S214004510B04262D802EB420301EB8303DB6D1B095A
S21400452007FB03F7B8425BD8AB781B0403F4702391
S214004530120602F0706213432A7802F00F02134349
S2140045406A781201D2B213432C4A93610020BDE868
S214004550F081EB7803EB4301274A02EB8102D2F8A5
S214004560A820120904FB02F4A0423CD80A462249BD
S21400457001EB8202D2F8AC20120906FB02F6B0422A
S21400458034D803EB430201EB8202D2F8B0201209C2
S21400459007FB02F7B8422CD8AA78120402F470225D
S2140045A01B0603F0706313432A7802F00F021343CE
S2140045B06A781201D2B21343104AD3610020BDE8D4
S2140045C0F0810120BDE8F0810120BDE8F0810120E6
S2140045D0BDE8F0810120BDE8F0810120BDE8F08152
S2140045E00120BDE8F0810120BDE8F0810120BDE892
S2140045F0F0810120BDE8F081C405010000400640BE
S21400460038B50546FFF7CEFC2946FFF707FF0446F8
S21400461058B9E8780A220849013A0B69C3F30363DC
S214004620984204D0002AF7D10324204638BD002A39
S21400463008BF0324F9E700BF0040064010B5044653
S2140046401B4B1B69C3F30363013B052B1DD8DFE837
S21400465003F00313161C1C19FFF7B6FC144B1B695A
S214004660C3F303430133B0FBF3F0012C0FD0ECB1DE
S214004670022C14D0002010BDFFF74AFDEEE7FFF72E
S214004680BFFDEBE7FFF726FEE8E70020E6E7084B6E
S2140046901B69C3F303130133B0FBF3F010BD044BE7
S2140046A01B6903F00F030133B0FBF3F010BD00BF2E
S2140046B00040064008B50F4B1B6AC3F30363062B86
S2140046C015D8DFE803F004080B0E141411000220BE
S2140046D0FFF7B4FF08BDFFF777FC08BDFFF718FD2E
S2140046E008BDFFF78DFD08BDFFF7F4FD08BD0020EF
S2140046F008BD00BF0040064008B541B1012931D0D1
S2140047000020024610B1431E22FA03F008BD04380A
S214004710032852D8DFE800F00B02141DFFF770FDE7
S2140047200246294BD3F8040300F00700EAE7FFF738
S214004730EFFC0246244BD3F8040200F00700E1E742
S214004740FFF742FC0246204BD3F8040100F00700B6
S214004750D8E7FFF7BFFD02461B4BD3F8040600F070
S2140047600700CFE7043803282AD8DFE800F00B025A
S214004770141DFFF745FD0246134BD3F80403C0F3A0
S2140047800220BFE7FFF7C4FC02460F4BD3F8040233
S214004790C0F30220B6E7FFF717FC02460A4BD3F831
S2140047A00401C0F30220ADE7FFF794FD0246064B76
S2140047B0D3F80406C0F30220A4E700200246A1E7CF
S2140047C0002002469EE700BF0040064008B5114B99
S2140047D01B69C3F30113032B19D8DFE803F00207A4
S2140047E0101300210620FFF787FF08BD094B186944
S2140047F000F00200002818BF4FF4FA4008BD064B30
S214004800186808BD00210520FFF776FF08BD0020C8
S21400481008BD00BF00800440100D0020114B1B692E
S214004820C3F38103022B07D0032B0ED0002B0CBF43
S2140048304FF4FA30002070470A4B186900F0020067
S214004840002818BF4FF4FA407047064B186910F05E
S214004850020006D0186900F00100002818BF4FF4C7
S2140048607A7070470080044008B5244B5B6813F4E8
S214004870006F40D0214B5B68C3F303130E2B09D89F
S214004880DFE803F00A080D081208171C20252F0879
S21400489029082C00002026E0FFF70CFF23E001216A
S2140048A00620FFF729FF1EE001210420FFF724FF62
S2140048B019E001210520FFF71FFF14E00020FFF795
S2140048C0BDFE10E001210720FFF716FF0BE00120D8
S2140048D0FFF7B4FE07E0FFF7A1FF04E0FFF776FF5F
S2140048E001E04FF4FA30054B5B68C3F30223013353
S2140048F0B0FBF3F008BD002008BD00BF00800440F8
S21400490010B50C4615380E2800F2A380DFE800F03C
S21400491008131E29333D414B5D6A737E87909900CC
S214004920584BDB68C3F30163022B00F29D80564AA6
S21400493052F8233022E0534BDB68C3F38163022B2B
S21400494000F29480504A52F8233017E04D4BDB6853
S214004950C3F30173022B00F28B804B4A52F82330CC
S2140049600CE0484BDB689B0F022B00F28380464A24
S21400497052F8233002E0FFF777FF03460020002BB3
S2140049806AD0002C7CD0236010BDFFF71FFF0346C3
S214004990F4E73E4B9B78DB0901D00023EEE7FFF7F8
S2140049A03DFF0346EAE7394B9B78DB0964D1354B7C
S2140049B01B6913F00203E1D0324B1B6903F00103BD
S2140049C0002B18BF4FF47A73D8E7304B9B78DB097F
S2140049D054D12C4B1B6903F00203002B18BF4FF475
S2140049E0FA43CBE7294B9B78DB09002B14BF002347
S2140049F04FF4FA33C2E7234B1B6CC3F3001383B3A5
S214004A000120FFF71BFE03460020B8E71D4B1B6C7A
S214004A10C3F3C003002BF3D14FF48070B1E7194BFA
S214004A201B6CC3F38003002BEAD14FF48070A8E719
S214004A30144B1B6CC3F34003002BE1D14FF4807082
S214004A409FE7104B1B6C13F00103D9D14FF4807015
S214004A5097E70420002392E7042818BF4FF48070DD
S214004A608FE74FF480708CE7002387E7002385E705
S214004A70002383E7002381E700237FE700237DE709
S214004A8010BD00BF00800440140D002000D0074079
S214004A9030B583B0002301932F4B03EB4003B3F8EC
S214004AA0FC309B0003F1804303F5CA231D68C5F361
S214004AB0C0051C6804F00704AC4219D31A6812F04B
S214004AC0804F15D01B68C3F30263013B052B21D82A
S214004AD0DFE803F003111620201B0620FFF70CFE6C
S214004AE001900134019BB3FBF4F405FB04440194EC
S214004AF0019803B030BD0420FFF7FEFD0190F0E7FB
S214004B000520FFF7F9FD0190EBE70720FFF7F4FD1E
S214004B100190E6E73C3803281BD8DFE800F00208DF
S214004B200E1401A91520FFF7EBFE0024D9E701A912
S214004B301620FFF7E5FE0024D3E701A91720FFF7AC
S214004B40DFFE0024CDE701A91820FFF7D9FE0024D8
S214004B50C7E70024C5E700BFC405010030B583B031
S214004B600546FFF7B7FB88B1062D56D006238DF80D
S214004B70073002238DF8063001238DF8053002A891
S214004B8000F8043DFFF73CFD044600E00124FFF773
S214004B9037FB10B1032D4AD074B9FFF715FA10B1E0
S214004BA0012D4DD0D4B9FFF7B3FA10B1022D00D0C5
S214004BB01CBB204603B030BD03238DF8073000220F
S214004BC08DF8062001228DF8052002A800F8043D85
S214004BD0FFF716FD0446E0E70124E3E701238DF81E
S214004BE0073000228DF806208DF8053002A800F860
S214004BF0043DFFF705FD0446D5E702238DF8073090
S214004C0000238DF806308DF8053002A8012300F841
S214004C10043DFFF7F5FC0446CBE7FFF7F1FA002862
S214004C20CAD1FFF7D1F90028D6D10124BBE7FFF798
S214004C30CBF90028B6D1FFF76BFA0028B8D1B8E751
S214004C40FFF766FA0028B3D1B3E7174B1B69C3F327
S214004C500363013B052B06D8DFE803F0031D2005A0
S214004C6005230123C37010490A69104BC2F30312CF
S214004C701A4492F89C2142700A69C2F303421A440D
S214004C8092F89C2182700A6902F00F02134493F88E
S214004C909C31037070470223C370E4E70323C3709C
S214004CA0E1E70623C370DEE700400640C4050100C6
S214004CB001383F282DD8DFE800F02A282C262C2C97
S214004CC02C242C2C2C2C2C2C2C222C2C2C2C2C2C31
S214004CD02C2C2C2C2C2C2C2C2C202C2C2C2C2C2C1B
S214004CE02C2C2C2C2C2C2C2C2C2C2C2C2C2C2C2CFF
S214004CF02C2C2C2C2C2C2C2C2C2E062070470520F3
S214004D007047042070470320704702207047012038
S214004D1070470020704707207047F0B5A5B028B34D
S214004D2004460646002800F0FF80C54B1B69C3F307
S214004D300363032B00F0C680FFF762FA002800F03A
S214004D40B88003238DF8073000228DF80620012254
S214004D508DF8052024A800F88C3DFFF751FC054689
S214004D60002800F0AF80284625B0F0BD01238DF85E
S214004D700B3000228DF80C208DF80D308DF80E20AB
S214004D808DF808308DF809308DF80A308DF8163019
S214004D908DF814308DF815208DF80F208DF8103012
S214004DA08DF811308DF838300D928DF82530A549E4
S214004DB006918DF81C208DF824208DF81D308DF876
S214004DC01E2002208DF81F008DF820308DF821302F
S214004DD08DF830308DF828208DF82F208DF829207A
S214004DE00C218DF82A108DF82B208DF82C308DF89C
S214004DF02D308DF83D3003218DF83C108DF84B306A
S214004E008DF841108DF840208DF83F308DF83E30FB
S214004E108DF845008DF844308DF843208DF842100B
S214004E2006208DF849008DF848208DF847308DF81B
S214004E30461085492291202121918DF84C308DF81D
S214004E404D208DF84E208DF84F208DF850308DF87F
S214004E5054308DF853308DF852208DF851208DF84F
S214004E6078308DF879308DF87A308DF87B308DF883
S214004E707C308DF87D308DF883308DF85830179261
S214004E80189219921A921B921C921D928DF87E30DF
S214004E908DF87F308DF880208DF881208DF8822067
S214004EA08DF88C308DF88D308DF88E2002AE34461D
S214004EB03BE700210120FFF7B3F9054600287FF401
S214004EC052AF3EE73146E078FFF738F9054600284E
S214004ED000F0C280FFF766F8022800F0F78003288B
S214004EE000F0F780012800F0D180002D7FF43BAF62
S214004EF00022564B1A6094F8303013B1E26A534BD6
S214004F001A6094F8353053B14D490A6A22F070623F
S214004F1094F834301B0603F0706313430B6294F866
S214004F204330002B40F0338194F84430E3B194F8DA
S214004F30455094F8463094F847204549486820F490
S214004F4000604860496821F47F61002D14BF4FF46B
S214004F50006000201B01DBB2120202F4E062134381
S214004F600B4303433A4A536094F84830DBB194F855
S214004F704A3094F849203649096921F03F0194F8EF
S214004F804C00014394F84B00002814BF0220002078
S214004F909B0003F00C030B43120102F03002134394
S214004FA003432B4A136194F87030002B37D0284BFC
S214004FB0196C21F0010194F871200A431A641B6CE5
S214004FC023F0020394F87220002A14BF0222002263
S214004FD013431F4A1364136C23F0040394F87320DE
S214004FE0002A14BF042200221343194A1364136CC8
S214004FF023F0080394F87420002A14BF0822002225
S2140050001343134A1364136C23F0100394F87520AB
S214005010002A14BF1022002213430D4A136494F88A
S2140050205030002B00F000810A4B626D1A60A26DB2
S2140050305A60E26D9A6004F160000121044DCBE0F5
S2140050400040064000127A000094FF1F100D00205A
S21400505000800440140D002004F11001607FFEF76C
S214005060C1FF054600287FF435AF04F1200194F80F
S2140050702800FFF751F90546FEF794FF022825D0D1
S214005080032826D0012801D0002601E004F13606C8
S214005090002D7FF42AAFF378032B1DD08DF8073050
S2140050A0B3788DF8063073788DF80530337824A8F9
S2140050B000F88C3DFFF7A4FA054600287FF415AFEC
S2140050C0E11DA07BFFF7ACF805460EE704F13A06B3
S2140050D0DEE704F13E06DBE794F828300BBB637F7F
S2140050E093BBE378002B42D10125002D7FF4FDAE63
S2140050F0E11DA07BFFF794F8054600287FF4F5AE87
S214005100F3788DF80730B3788DF8063073788DF81D
S2140051100530337824A800F88C3DFFF771FA054671
S214005120E3E606238DF8073002238DF806300123C8
S2140051308DF8053024A800F88C3DFFF761FA054687
S214005140637F7BB10128D0D101238DF80730002280
S2140051508DF806208DF8053024A800F88C3DFFF762
S2140051604FFA0546E378002BBFD0012DBDD10223B0
S2140051708DF8073000238DF806308DF8053024A80A
S214005180012300F88C3DFFF73BFA0546ADE704F136
S21400519036010120FFF742F9054600287FF4E3AD0B
S2140051A004F13A010220FFF739F9054600287FF49A
S2140051B0DAAD04F13E010320FFF730F9054600287A
S2140051C07FF4D1ADB0E626F040761B0603F04073C0
S2140051D03343EB600131C9B250F8043BEE684A1E17
S2140051E0D2B2032A00F2A18001A757F822F000BF2E
S2140051F0C7510000015200000F5200001D5200006F
S21400520026F040669B0603F040633343E1E726F052
S21400521040561B0703F040533343DAE726F0404678
S21400522046EA8373444AD36094F87630EBB1424A38
S214005230936E00209066516821F4805194F878307F
S2140052401B0303F480530B435360906694F8773047
S2140052505BB194F879305B0003F00E0394F87A2083
S21400526042F080521343344A936614F17C0F3DD0CB
S214005270D4F88030002B39D0E36F002B36D00021D5
S2140052802E482F4D01EB8102D4F880309B5C00EB5A
S2140052904303B3F8FC309B0003F1804303F5CA23B5
S2140052A01E6826F080461E60D4F880309F189E5CEC
S2140052B0BB781B0603F0E063FA78D20002F008021F
S2140052C013433A7902F0070213437A78002A14BF90
S2140052D04FF080420022134300EB4606B6F8FC204F
S2140052E045F822300131E36F9942CBD394F88430ED
S2140052F003B314498B7803F07F0394F8852082F07B
S214005300010243EAC213DBB28B7094F98630002B9D
S214005310BCBF20335BB20B490A7903F01F0302F0CF
S214005320E00213430B7100251DE5EE6003297FF6AE
S21400533051AF79E7002516E500800440C40501005A
S2140053400050064000D0074070B504460D461128B0
S21400535007D9232840F285804D2840F28580042016
S21400536070BD11287AD8DFE800F00913191F242928
S2140053702E33383C41484F565D646B720020FFF771
S2140053805DF903460020002D00F0D9802B6070BD2B
S2140053900120FFF753F903460020F4E70220FFF749
S2140053A04DF903460020EEE7FFF75EFA03460020BD
S2140053B0E9E7FEF7ADFE03460020E4E7FEF720FF30
S2140053C003460020DFE7FEF7FFFD03460020DAE78E
S2140053D0FEF780FF03460020D5E7594B1B680020E8
S2140053E0D1E7FFF767F903460020CCE70021042049
S2140053F0FFF782F903460020C5E701210420FFF7E6
S2140054007BF903460020BEE700210520FFF774F96C
S21400541003460020B7E701210520FFF76DF9034694
S2140054200020B0E700210620FFF766F903460020BB
S214005430A9E701210620FFF75FF903460020A2E74F
S21400544000210720FFF758F9034600209BE70121BB
S2140054500720FFF751F90346002094E700230420B5
S21400546091E7FFF74DFA70BD242805D804200023E5
S214005470002D64D02B6070BDA0F13303DBB21A2B75
S21400548007D8304A22FA03F313F0010F18BF04209E
S214005490EDD12D4B03EB4403B3F8FC202B4B53F814
S2140054A0223013F0804F37D14FF48070DFE70120B1
S2140054B0FFF7C4F8034600283CD100234FF4807061
S2140054C0D6E70020FFF7BAF803460028F5D031E00B
S2140054D00220FFF7B3F803460028EED02AE016F0C5
S2140054E0080F06D116F0100F0BD100234FF4807072
S2140054F0BEE700212046FFF7CBFA034616F0100F52
S21400550004D001212046FFF7C3FA0346002B14BF40
S21400551000204FF48070ABE70B4B234493F8AC614C
S21400552016F0200FC3D116F0400FCAD116F0800F28
S214005530CED1002316F0180FD1D1002098E770BD09
S214005540100D002041210004C40501000050064053
S21400555070B582B004460D4689B1554B234493F886
S214005560AC3113F0010F63D113F0180F30D06A7806
S214005570043A032A5AD8DFE802F023252729012314
S2140055808DF80030FEF7C4FD48B104238DF80130D5
S2140055900123ADF80230ADF804306D46DDE7FEF7C6
S2140055A02FFE08B10523F1E7FEF794FE08B10723A6
S2140055B0ECE7FEF709FD002814BF06234F23E5E7B6
S2140055C0022206E0032204E0012202E0062200E0B6
S2140055D0002213F0040F1ABFAE8806F1FF3600262D
S2140055E013F0020F1ABF698801F1FF310021304B1A
S2140055F003EB4404B4F8FC40A30003F1804303F536
S214005600CA23186820F0804018602B7863B1120611
S21400561042F0804206F007063243C90001F0080156
S2140056200A43244B43F8242002B070BD0022D0E782
S2140056302B781F3C042CF7D8DFE804F02E22160A3D
S21400564003001D490A6C22F0010213430B64EBE7CA
S214005650194A126C22F00202002B14BF0223002308
S2140056601343154A1364DFE7134A126C22F0040250
S214005670002B14BF0423002313430F4A1364D3E7FD
S2140056800D4A126C22F00802002B14BF08230023D8
S2140056901343094A1364C7E7074A126C22F0100244
S2140056A0002B14BF102300231343034A1364BBE7E5
S2140056B0C4050100005006400080044070B582B06A
S2140056C005460C46FEF76EFC06469DB12B68022B7F
S2140056D00ED0042B10D0012B0CBF012504256CB175
S2140056E02378043B032B56D8DFE803F0574F51537B
S2140056F00225F4E70546F2E70325F0E7FEF780FD0E
S21400570058B103238DF8073000228DF806200122B9
S2140057108DF805208DF8043055E0FEF7DBFD58B116
S21400572006238DF8073002238DF8063001238DF806
S21400573005308DF8043046E0FEF746FC50B10123F4
S2140057408DF8073000228DF806208DF805308DF88C
S214005750043038E0FEF7DCFCA8B302238DF80730EF
S2140057609D4208D000238DF806308DF805300123C1
S2140057708DF8043027E001238DF8063000238DF8DD
S214005780053003238DF804301DE0032306E00123D3
S21400579004E0062302E0FF2300E002238DF8073032
S2140057A00F4B62881A4492F8FC218DF80620A288D6
S2140057B01A4492F8FC218DF80520E288134493F8E9
S2140057C0FC318DF80430B54205D001A92846FEF715
S2140057D025FE02B070BD01A8FEF712FFF9E700BF74
S2140057E0C4050100154B1B69C3F30363013B052B7E
S2140057F020D8DFE803F00316191F1F1C06230370CA
S2140058000E4A1369C3F30343013343801369C3F39A
S214005810031301338380136903F00F030133C3803E
S214005820704704230370EBE705230370E8E70723BC
S2140058300370E5E704230370E2E700BF004006407C
S2140058402DE9F04186B004460D4631B38889FFF74E
S2140058502FFA8046E889FFF72BFA07462E78201F96
S214005860172800F23881DFE810F01C0057008F0080
S214005870E4003601360136013601360136013601BE
S214005880360136013601360136013601360136015B
S21400589036013601360136011C010127B8463E4660
S2140058A0DDE78E4B1B69C3F30363022B1FD0002476
S2140058B065B301238DF80D308DF80C3000228DF87D
